:020000040800F2
:1000000008C80020850200083B4B00089142000808
:10001000394B000805220008615700080000000065
:10002000000000000000000000000000A501000822
:10003000592200080000000001020008194F0008C2
:100040009F0200089F0200089F0200089F0200080C
:100050009F0200089F0200089F0200089F020008FC
:100060009F0200089F0200089F0200089F020008EC
:100070009F0200089F0200089F0200089F020008DC
:100080009F0200089F0200089F0200089F020008CC
:100090009F0200089F0200089F0200085B220008E0
:1000A0009F020008F14F00089F0200089F0200080D
:1000B0009F02000800000000000000009F020008EE
:1000C0009F0200089F0200089F0200089F0200088C
:1000D0009F020008F9530008E5540008B5550008D0
:1000E0009F0200089F0200080000000000000000BE
:1000F0000000000000000000000000000000000000
:10010000000000009F020008000000009F0200089D
:1001100000000000000000009F0200089F0200088D
:100120009F0200089F0200089F0200089F0200082B
:100130009F02000800000000000000000000000016
:100140009F0200089F0200089F02000800000000B4
:100150009F0200089F0200089F0200089F020008FB
:100160009F0200089F0200089F0200080000000094
:100170009F0200089F02000800000000000000002D
:100180009F0200089F0200089F020008DFF810D0BD
:1001900000F00EFE0048004795760008AFF300809F
:1001A00008C800202C4B1968086800F05AB880F382
:1001B0000988BFF36F8F4FF0000080F311887047FC
:1001C0000000000008480068006880F308884FF0CD
:1001D000000080F3148862B661B6BFF34F8FBFF39F
:1001E0006F8F00DF00BF00BF08ED00E0DFF80C00FC
:1001F000016841F470010160704700BF88ED00E0C4
:10020000EFF30980BFF36F8F134B1A681EF0100FC6
:1002100008BF20ED108A20E9F04F106009B44FF0BC
:10022000500080F31188BFF34F8FBFF36F8F08F03A
:10023000B5F94FF0000080F3118809BC196808680F
:1002400000F014B81EF0100F08BF00F014B880F3CF
:100250000988BFF36F8F70472C010020EFF30580F2
:10026000704730C8B0E8C04FFFF7A1BF30C8B0E852
:10027000C04FFFF7E7BFB0EC088AB0EC08CAFFF741
:10028000E6BF00000648804706480047FEE7FEE755
:10029000FEE7FEE7FEE7FEE7FEE7FEE7FEE7FEE736
:1002A000AD4F00088D0100082DE9F05F05460020E4
:1002B00092469B4688460646814640241BE02846D7
:1002C00041464746224600F0DAFB53465A46C01ADA
:1002D000914110D311461846224600F0C1FB2D1A59
:1002E00067EB01084F4622460120002100F0B8FBD1
:1002F00017EB00094E41201EA4F10104DFDC484643
:1003000031462A46434600F000B830BCBDE8C09FE5
:1003100040EA01039B0703D009E008C9121F08C087
:10032000042AFAD203E011F8013B00F8013B521E07
:10033000F9D27047D2B201E000F8012B491EFBD27E
:1003400070470022F6E710B513460A4604461946E0
:10035000FFF7F0FF204610BD30B505462A460B4694
:1003600012F8010B13F8014B08B1A042F8D01CB1F0
:10037000002802D06D1CF1E7284630BD10B50446B8
:1003800004E00B7800F8013B03B1491C521EF8D27F
:10039000204610BDCAB2401E10F8011F8A4202D08A
:1003A0000029F9D100207047421C10F8011B0029D8
:1003B000FBD1801A704710B5002200E0521C835C0C
:1003C0008C5CA34201D1002BF8D1D8B2E1B2401A23
:1003D00010BDF0B480EA0102D40F4200B2EB410F2D
:1003E00002D20246084611464A0042D0C30DDDB291
:1003F000C1F3C752AD1A202D35DAC1F3160141F40D
:10040000000204B15242C5F1200602FA06F12A4167
:100410001044B3EBD05F23D0C4B1012DA0EBC35087
:1004200009DCF0BC4FF0004202EAC352DBB200F537
:10043000000000F09EBB400000F1807000EBC35054
:10044000A0F1807040EAD170490009E0490841EA12
:10045000C071A0EBC35000F50000400800EBC35092
:10046000F0BC00F07DBB6142012202EB4101001BA8
:10047000F6E7F0BC704781F00041AAE780F0004049
:10048000A7E780EA010210B502F00043400022D045
:100490004A001FD0010E01EB1261C0F35600C2F3F7
:1004A000560240F4000042F40002A0FB02200004C7
:1004B0007F39140400D0401C50EA124001D440009F
:1004C000491EC2B20C0604EBD010401C4008802A22
:1004D00002D003E0002010BD20F00100002900DA66
:1004E0000020184310BD30B480EA010202F000453C
:1004F00030F0004221F0004013D090B1C30DD40D74
:10050000C2F31601C0F31600E41A41F4000140F4EE
:1005100000027D34914201D3641C00E04900002CAC
:1005200002DA30BC002070474FF4000000239142F3
:1005300001D3891A034340084FEA4101F7D151B171
:10054000914202D14FF0004105E002D24FF001018B
:1005500001E06FF0010103EBC450284430BC00F00F
:10056000FFBA2DE9FE4F804681EA0300C00F0C461A
:10057000009021F0004123F00045B8EB0200A941B2
:1005800005D24046214690461C460B46024623F0C3
:100590000040104347D0270DC7F30A00C3F30A51A8
:1005A0000290401A019040286BDAC3F3130040F424
:1005B000801B0098924620B10023D2EB030A63EB24
:1005C0000B0B01985946C0F14002504600F048FA22
:1005D00006460D4650465946019A00F060FA10EB67
:1005E00008006141002487EA115284EAE7731A4344
:1005F00040D0009A62B3019A012A4FEA075215DCF3
:10060000001B61EB02014FF0004202EA0752CDE904
:100610000042001C41F5801132462B4600F0E6FAFC
:1006200003B000F045B840462146F9E7001B61EBF6
:100630000201001C41F5801300185B412018A2F54F
:10064000001747EB030140EAD570B6196D4111E080
:100650006D084FEA360645EAC0754FEA0752001B9F
:1006600061EB0201001C41F5801149084FEA30009E
:100670000019514132462B4603B000F01CB800F07F
:10068000A6BA0098012240000023D0EB020263EBDF
:10069000E073009821464FEAE074B8EB000061EB8C
:1006A0000401E9E783F000435BE781F0004158E78C
:1006B00030BCBDE8C08F30BCBDE8C04FFFF7DFBF26
:1006C0002DE9FE4F81EA030404F0004421F00041CB
:1006D00000944FF0000B23F0004350EA01045ED079
:1006E00052EA03045BD0C3F30A54C1F30A552C4405
:1006F000A4F2F3340194A0FB0254C1F3130141F4BA
:100700008011C3F3130343F4801301FB024400FB85
:10071000034E840A970A44EA815447EA8357A4FBAC
:10072000076802958D0A05FB07854FEA932C04FBA9
:100730000C542705029D4FEA065847EA1637B5EBD9
:1007400008056EEB070C870E920E47EA811742EA06
:100750008312A7FB0201B6EB0B0164EB00042B0D27
:1007600043EA0C335E1844EB1C50DA465146E7FB73
:100770000201C5F313044FEA0B3343EA14534FEA63
:100780000432019C43EA0603A4F10C040294009C89
:10079000CDE900B400F02AFA03B000F003B800205D
:1007A0000146F9E730BCBDE8C08F2DE9F04D81EA84
:1007B000030404F0004B21F0004514464FF0000AFA
:1007C00023F0004150EA050220D054EA01021DD076
:1007D000C5F30A570246C5F31303C1F31300C1F36F
:1007E0000A5640F4801543F48013A7EB0608101B4B
:1007F000D64608F2FD3873EB050002D308F1010874
:1008000001E092185B41B8F1000F03DA00200146C5
:10081000BDE8F08D00204FF48011064684460EE0BE
:10082000171B73EB050705D3121B63EB0503064388
:100830004CEA010C49084FEA300092185B4150EA3B
:100840000107EDD152EA030012D082EA040083EAE4
:100850000501084305D0101BAB4106D2012200233D
:1008600006E000224FF0004302E06FF00102531057
:100870001AEB06004CEB085110EB0A0041EB0B01A0
:10088000BDE8F04D00F0A3B9002801DBC0F1004045
:10089000002901DBC1F10041814201D801207047EC
:1008A00000207047002801DBC0F10040002901DB77
:1008B000C1F10041814201D2012070470020704700
:1008C000002801DBC0F10040002901DBC1F100413B
:1008D000814201D30120704700207047002801DBCE
:1008E000C0F10040002901DBC1F10041814201D982
:1008F0000120704700207047002801DBC0F1004054
:10090000002901DBC1F10041814201D10120704782
:100910000020704796230022114600F02AB9F0B457
:10092000CA17CB0F50405140C61841F100054FEA9D
:10093000C372314628004FF0960303D0B623F0BCB3
:1009400000F017B930460021F9E70EB5C10F80EA73
:10095000E0700844CA07002140F233438DE80E00DE
:100960000A460B4600F042F903B000BD20F00040FB
:10097000C10DC0F3160040F400007F2901DA002009
:100980007047962903DCC1F19601C840704796393B
:100990008840704710B500F0004420F00040C20DC0
:1009A000C0F3160040F400007F2A02DA002001465E
:1009B00010BD0021962A03DCC2F19602D04002E06D
:1009C000963A00F04DF8002CF2D00023D0EB030053
:1009D00063EB010110BD00F0004230F000400AD08E
:1009E000C10D01F56071C0F3160042EA0151C20861
:1009F00040071143704700200146704701F0004353
:100A000030B421F0004150EA010206D00A0DA2F5EF
:100A10006072C1F31301002A02DC30BC0020704771
:100A2000440F44EAC104C100E01830BC00EBC250DE
:100A300000F096B830B50B46014600202022012474
:100A400009E021FA02F59D4205D303FA02F5491B9C
:100A500004FA02F52844151EA2F10102F1DC30BDB2
:100A6000202A04DB203A00FA02F10020704791406E
:100A7000C2F1200320FA03F3194390407047202A63
:100A800004DB203A21FA02F00021704721FA02F338
:100A9000D040C2F120029140084319467047202AF5
:100AA00006DBCB17203A41FA02F043EAE07306E096
:100AB00041FA02F3D040C2F12002914008431946A6
:100AC000704700000FB4002300B589B00CA9009155
:100AD0000B996FF00042CB601E4B06931E4B0793A1
:100AE0000423CDE901321D4A089202466B460020DC
:100AF00000F00AFA09B05DF814FB70B586B006463E
:100B00004FF0FF300091CDE90101002015460C4661
:100B100004903246694604A8FFF7D4FF02460498C1
:100B2000211825B108B1084600E020462860049845
:100B300000280DD0002A02DD0098884208D0081B4A
:100B40000094CDE901043246694604A8FFF7BAFFD4
:100B500006B070BD4711000865110008D50D0008EA
:100B60000029A8BF7047401C490008BF20F00100C1
:100B7000704710B4B0FA80FC00FA0CF050EA01049F
:100B800004BF10BC704749B1CCF1200421FA04F431
:100B900011FA0CF118BF012121430843A3EB0C010A
:100BA000CB1D4FEA00614FEA102042BF002010BC6D
:100BB000704700EBC35010440029A4BF10BC70471D
:100BC000401C490008BF20F0010010BC704710B560
:100BD000141E73F1000408DA401C41F10001921860
:100BE0005B411A4301D120F0010010BD2DE9F04D09
:100BF00092469B4611B1B1FA81F202E0B0FA80F25E
:100C000020329046FFF72CFF04460F4640EA0A00C8
:100C100041EA0B0153465A46084313D0114653EAA2
:100C2000010019D0C8F140025046FFF728FF0546E1
:100C30000E46504659464246FFF712FF084305D07C
:100C4000012004E020463946BDE8F08D0020054330
:100C500046EAE0762C4337430A986305E40AA0EBA2
:100C600008000022FD0A44EA47540A3002D5002059
:100C70000146E9E7010510196941DDE90845001958
:100C80006941BDE8F04DA2E770B521F00043034390
:100C90000CD0C1F30A550024D5EB040564EB040322
:100CA000D617AD1AB34102DB0020014670BD2018F3
:100CB00041EB025170BDC1F30A52C1F3130140F27E
:100CC000FF3341F480119A4202DA00200146704756
:100CD00040F233439A42A2F2334202DC5242FFF71F
:100CE000CEBEFFF7BDBE000030B5041E71F100049A
:100CF00004DB4FF00044404264EB0101141E73F129
:100D0000000405DB1C464FF00043524263EB040332
:100D1000994208BF904230BD70B5044601F00045CD
:100D20000020054304D14FF00045644265EB01010A
:100D300003F00045284305D118464FF000435242C6
:100D400063EB0003101B73EB010002D24FF0004075
:100D500009E082EA040283EA01034FF000501A43DB
:100D600001D14FF0C0404FEA2062EFF3008162F3FF
:100D70001F6181F3008870BD002801DBC0F10040D5
:100D8000002901DBC1F10041814202D24FF0004055
:100D900004E04FF0005001D14FF0C0404FEA206214
:100DA000EFF3008162F31F6181F300887047000058
:100DB000064C074D06E0E06840F0010394E80700A8
:100DC00098471034AC42F6D3FFF7E4F9B88A00082C
:100DD000D88A0008C0B24FF4F05100F025BA0000E4
:100DE0002DE9FF4F087883B09946FF2805D0491CAC
:100DF0002D2804D00024002008E000200BE001246E
:100E0000F9E700EB800003EB4000491C0B78FF2B57
:100E1000F7D104B1404200230293147819461D46CD
:100E20002D2C01D02B2C04D1521C2D2C13D000249E
:100E30000294AA461478FF2C0FD00A25A3FB05784C
:100E400001FB05814FF0000C03FB0C11521CE31950
:100E50004AEB0101EEE70124EAE7814453EA01008D
:100E600002D019F5C87F06DA03980021C0E9001105
:100E700007B000F065B90025AE4E2F46DFF8B88206
:100E8000184600F0E5F9CDE90001B9F1000002DAF9
:100E9000C9F1000400E004460023A74A1AEB030B43
:100EA00042EB045A12E0E00707D02A4633463846A0
:100EB0004146FFF705FC074688462A46334610465A
:100EC0001946FFF7FDFB05460E466410002CEAD1DB
:100ED000DDE90001B9F1000F5A46534606DAFFF783
:100EE00064FC3A464346FFF760FC05E0FFF7E8FB89
:100EF0003A464346FFF7E4FB029A0AB181F000410B
:100F0000039AC2E90001B3E72DE9FF4F1F468DB0F8
:100F1000D7E901464FF0FF382E2045464FF0000933
:100F20000B90B9696D1C0E988847396A82468847CC
:100F30000028F6D1BAF1FF3F0AD024F4D064002E85
:100F400011DDBAF12B0F08D0BAF12D0F0BD102E051
:100F5000404611B08DE744F48064B9696D1C0E9869
:100F600088478246761E6946600501D52D2000E03F
:100F70002B208DF8000001F1010B0DF1200809E094
:100F8000B9696D1C0E98884782460F9844F4007426
:100F9000761E0560002E02DDBAF1300FF0D00B99FD
:100FA0008A453ED144F0800406E00F99681CA9F1FF
:100FB000010944F400740860B9696D1C761E0E982E
:100FC000884782463028F0D02BE00B998A4505D11E
:100FD000200603D444F08004761E18E0504605F045
:100FE00084FD08B30DF11301761E44F400748B45A3
:100FF00008D2AAF130000BF8010B200607D5A9F1A1
:10100000010003E0200602D409F101008146A00599
:1010100002D50F99681C0860B9696D1C0E98884745
:101020008246002ED1DC53E0002E51DDBAF1650F6F
:1010300002D0BAF1450F4BD1A00549D5B9696D1C55
:1010400024F44074761E0E9888478246002E0CDDEC
:101050002B2804D0BAF12D0F07D144F48074B9695C
:101060006D1C0E9888478246761EE00501D52D211D
:1010700000E02B2108F8011BCDF82C8021E00DF1B8
:101080002901761E44F4007488450CD2AAF1300080
:1010900010F0FF0088F8000002D10B99884509D9AB
:1010A00008F1010806E0E00501D5244801E042F21C
:1010B0000F708146B9696D1C0E98884782460F985B
:1010C0000560002E04DD504605F00FFD0028D6D146
:1010D000F9690E988847FF208BF8000088F8000017
:1010E0000020069007904B466A4608A906A8FFF71D
:1010F00077FEA00502D46FF001002AE714F0240F58
:101100000AD0E00714D1DDE906123868031D3B6000
:101110000068C0E900120BE0DDE90601FFF76EFC94
:101120000146E00704D13868021D3A60006801609A
:1011300028460EE7000014400000F03FF1D8FFFF02
:1011400030BCBDE8C08F426842B1016811F8013B74
:1011500023B1521EC0E90012184670470121C16038
:10116000881E704742685AB1C368016843B98368F2
:101170008B4205D0491E521CC0E900120020704766
:101180004FF0FF3070472DE9F04D00231A461B1A2F
:101190008A4103DB00200146BDE8F08DC1F30A520D
:1011A000C1F3130141F480154FF0000BD10702D1B8
:1011B00000186D41521E0027044640F2FF113846C8
:1011C00001EB620A3E468046024600204FF4801141
:1011D000FFF755FCC2197141BB1846EB0100B4EB97
:1011E000030C75EB000C04D3E41A65EB00051746FD
:1011F0000E46241908F101006D4180463428E3DDD4
:10120000F91946EB0600091BA84103D24FF0FF3243
:10121000134601E0002213461BEB070046EB0A5180
:10122000BDE8F04DFFF7D3BC7F2801D9002208E0CC
:10123000064A02EB5002C007127800D1120902F0F0
:101240000F0201209040084070470000788A000893
:101250000EB540F2334202920022CDE9002213463D
:10126000FFF7C4FC03B000BD70B58C1810F8015B2B
:1012700015F0070301D110F8013B2A1106D110F82F
:10128000012B03E010F8016B01F8016B5B1EF9D133
:101290002B0705D40023521E0DD401F8013BFAE7B9
:1012A00010F8013BCB1A921C03E013F8015B01F824
:1012B000015B521EF9D5A142D8D3002070BD0000B9
:1012C0002DE9F04F0546B14C8FB040220021204659
:1012D000FFF739F8A968D5F800A00846FFF7D1F85C
:1012E0000021FFF776F802462969626008460292FB
:1012F000FFF7C7F80021FFF76CF80346A969A36060
:1013000008460193FFF7BDF80021FFF762F8814618
:10131000296AC4F80C900846FFF7B3F80021FFF7DC
:1013200058F88046A96AC4F810800846FFF7A9F863
:101330000021FFF74EF80746296B67610846FFF763
:10134000A0F80021FFF745F80646A96BA6610846FC
:10135000FFF797F80021FFF73CF80346296CE3619B
:1013600008460693FFF78DF80021FFF732F8024692
:10137000A96C226208460792FFF783F80021FFF765
:1013800028F88446296DC4F824C00846CDF820C04A
:10139000FFF777F80021FFF71CF88646A96DCDF816
:1013A00024E00846C4F828E0FFF76BF80021FFF7B7
:1013B00010F88346296EC4F82CB00846CDF828B042
:1013C000FFF75FF80021FFF704F80346A96E2363D7
:1013D00008460B93FFF755F80021FEF7FAFF024687
:1013E000296F626308460C92FFF74BF80021FEF765
:1013F000F0FF8346A96FC4F838B00846FFF741F8FC
:101400000021FEF7E6FF8446C4F83CC05146504632
:10141000D5F804A0CDF834C0CDF800A0FFF731F81E
:101420000021FEF7D6FF009982460846FFF729F80B
:1014300001465046FEF7CDFFE96800900846FFF7E9
:1014400020F8029A1146FEF7C4FF82466969C4F883
:1014500004A00846FFF715F8019B1946FEF7B9FFEF
:101460008446E969C4F808C001900846FFF709F806
:101470004946FEF7AEFF81460290696AC4F80C90B7
:101480000846FEF7FEFF4146FEF7A3FF8046E96AE5
:101490000390C4F810800846FEF7F3FF3946FEF7C4
:1014A00098FF0746696B049067610846FEF7E9FFFD
:1014B0003146FEF78EFF0646E96B0590A6610846A9
:1014C000FEF7DFFF0699FEF784FF0646696C06907B
:1014D000E6610846FEF7D5FF0799FEF77AFF064654
:1014E000E96C079026620846FEF7CBFF0899FEF7E5
:1014F00070FF0646696D089066620846FEF7C1FFF8
:101500000999FEF766FF8146E96DC4F82890084600
:10151000FEF7B7FF0A99FEF75CFF8046696EC4F8D4
:101520002C800846FEF7ADFF0B99FEF752FF0746E9
:10153000E96E27630846FEF7A4FF0C99FEF749FF02
:101540000646696F66630846FEF79BFF5946FEF73D
:1015500040FF8346E96FC4F838B00846FEF791FFB4
:101560000D99FEF736FF054600210098E563FFF769
:10157000A7F9002840F0B2800023504600212360E4
:10158000FFF79EF9002840F0BB8001E0C4C30020B3
:101590004FF0000AC4F804A0DDF804A00021504672
:1015A000FFF78EF9002840F05C814FF0000AC4F884
:1015B00008A0DDF808A000215046FFF781F90028B7
:1015C00040F042814FF0000AC4F80CA0DDF80CA0F6
:1015D00000215046FFF774F9002840F028814FF0B1
:1015E000000AC4F810A0DDF810A000215046FFF753
:1015F00067F9002840F00E814FF0000AC4F814A0EB
:10160000DDF814A000215046FFF75AF9002840F0F9
:10161000F4804FF0000AC4F818A0DDF818A00021EB
:101620005046FFF74DF9002840F0DA804FF0000AED
:10163000C4F81CA0DDF81CA000215046FFF740F9BB
:10164000002840F0C0804FF0000AC4F820A0DDF868
:1016500020A000215046FFF733F9002840F0A68073
:101660004FF0000AC4F824A048460021FFF728F9EB
:10167000002840F08E804FF00009C4F828904046C2
:101680000021FFF71DF9002877D14FF00008C4F8BA
:101690002C8038460021FFF713F9002861D100277C
:1016A000276300213046FFF70BF900284DD10026B3
:1016B000666358460021FFF703F9002839D1002658
:1016C000A66328460021FFF7FBF830BB0025E56341
:1016D0006A4BE26B1A600FB000F0F0B8009806F0A9
:1016E000D6FB00210090FFF7EBF8009B00287FF469
:1016F00044AF50460021FFF7E3F800283FF448AF1D
:10170000504606F0C4FB00218246FFF7D9F80028B6
:101710007FF440AF5A4B63603EE7284606F0B7FBC4
:1017200000210546FFF7CCF80028D0D1554BE363E4
:10173000CEE7584606F0ABFB00210646FFF7C0F89F
:101740000028BDD1504BA363BBE7304606F09FFB9A
:1017500000210646FFF7B4F80028A9D14B4B63637C
:10176000A7E7384606F093FB00210746FFF7A8F8E5
:10177000002895D1464B236393E7404606F087FB4C
:1017800000218046FFF79CF8002880D1414BE3629E
:101790007FE7484606F07BFB00218146FFF790F883
:1017A00000287FF46AAF3C4BA36268E7504606F01E
:1017B0006EFB00218246FFF783F800287FF452AFCA
:1017C000364B636250E7504606F061FB00218246CB
:1017D000FFF776F800287FF438AF314B236236E705
:1017E000504606F054FB00218246FFF769F80028B6
:1017F0007FF41EAF2B4BE3611CE7504606F047FB1E
:1018000000218246FFF75CF800287FF404AF264BE6
:10181000A36102E7504606F03AFB00218246FFF73B
:101820004FF800287FF4EAAE204B6361E8E65046AB
:1018300006F02DFB00218246FFF742F800287FF4D6
:10184000D0AE1B4B2361CEE6504606F020FB0021B4
:101850008246FFF735F800287FF4B6AE154BE360FB
:10186000B4E6504606F013FB00218246FFF728F845
:1018700000287FF49CAE104BA3609AE6C0C3002002
:101880006F12033B90C2F53C4260E53CF4FDD43C52
:10189000A69BC43C5939B43C0BD7A33CBD74933CC4
:1018A0006F12833C4260653CA69B443C0BD7233CB3
:1018B0006F12033CA69BC43B6F12833B30BCBDE858
:1018C000C08F0000000000002DE9F04FFF257E4A88
:1018D00083B013780D70A3F17D04012C40F2818058
:1018E000802B7ED0794B1B68092B7ED90E46FFF7E3
:1018F000E7FC774B774F1868FFF76DF870A3D3E9D3
:101900000023FEF7DDFEFFF779F839468046FEF743
:10191000D7FF002870D1704BDFF8C0B1DFF8C0A14D
:1019200040460021DBF80040DAF800901D68019382
:10193000FEF7D4FF002800F0B1806A4B2846002152
:101940001F60FEF7D9FF002876D04FF07E50054685
:10195000654F664B1968FEF7C6FD4FF07E51FEF7E6
:101960008AFD0146FEF735FD614B1968FEF789FDDA
:10197000FFF731F80022002305F00EFDFFF73EF8D7
:101980004FF0804105F033FD5A4B04461968284654
:10199000FEF7A9FD4FF07E51FEF76DFD0146FEF703
:1019A00018FD554B1968FEF76CFD2146FEF711FD39
:1019B0003946FEF766FDFFF70EF80023002205F01A
:1019C000EBFCFFF71BF84D4905F011FD01464B48B4
:1019D000FEF751FD4949FEF754FDFEF7C7FF00230E
:1019E0003070184603B000F08FB87E210B461846C1
:1019F000117003B000F088B8414C40462146FEF714
:101A000043FF00283BD1A046364B3E4F1C60DFF819
:101A1000CCB0DFF8CCA0304B1D6800212846DBF8A5
:101A20000040DAF80090FEF767FF38B140463449CD
:101A3000FEF727FD05468CE7B8462B4F4946204662
:101A4000FEF719FD00210446FEF72CFF08B104F152
:101A5000004429462046FEF746FD00210446FEF7D5
:101A6000B8FC4146FEF70DFD002105462046FEF775
:101A700035FFF0B940460021FEF703FD69E7194B39
:101A80004046C3F800804FF07F51FEF7FAFCDFF8C4
:101A90004CB00746DFF848A00F4BBDE7114A4FF0A6
:101AA0007F51D2F800804046FEF7EBFC0A4B074618
:101AB000B2E741462046FEF7E4FC4AE7AFF3008078
:101AC0003D0AD7A3703DDA3F940100209801002021
:101AD000900100200AD7233CC4010020C0C300208D
:101AE000C001002004C400208FC2753CB801002052
:101AF000AC010020BC010020B0010020000020410A
:101B00000000C8420000164330BCBDE8C08F000092
:101B10000023144A00201360134A4FF0010C136095
:101B20004FF07E5211490B6011490B60114B124965
:101B30001A60124B124A08601A60124B124A13497B
:101B40001A60134B134A81F800C01A60124B134AF3
:101B50001A60134B134A1A60134A144B1070186022
:101B6000704700BFC4010020A4010020C001002074
:101B7000A8010020BC010020A0010020B801002025
:101B800000004040B4010020E17A943F9C01002015
:101B900004C4002085EBD13EB0010020B81E453FB3
:101BA000AC0100208FC2F53E940100209801002076
:101BB000764B1B78012B04D07B23754A1846137093
:101BC00070472DE9F04F89B0FFF77AFB714B1A6827
:101BD000049201321A6002926F4B022A6F4A18680F
:101BE00011686F4B079206900591039352D81B68BA
:101BF0000193FEF740FC814601990846FEF741FC3F
:101C0000059F044639463846FEF73BFC0146204610
:101C1000FEF7DFFB049B054602331846FEF77AFE0B
:101C2000064648463146FEF75EFC3946FEF7D1FBD4
:101C3000079B0699186004460846FEF722FC2946D1
:101C4000FEF719FC3146FEF74EFC01462846FEF72A
:101C5000C0FB0346214620461C46FEF712FC014607
:101C60002046FEF708FC00210446FEF729FE68B96D
:101C70000020029B039A092B8CBF7F237E231060D8
:101C80001846434A137009B000F0A0B8204606F089
:101C9000FEF8EEE71C680194FEF7EDFB002181469B
:101CA0002046FEF729FE002855D03E4F3D46DFF87E
:101CB000F8B0DFF8F8A0DBF80040DAF80080013473
:101CC0002046FEF727FE064641463846FEF7D3FB80
:101CD0003146FEF708FC4146FEF77BFB8446344F55
:101CE000CAF800C0D7F80080284641466546FEF78E
:101CF000C2FB3146FEF7F7FB4146FEF76AFBCBF825
:101D0000004006463860002C3FF476AF294B284649
:101D10001C682146FEF7B5FBFEF75DFE0022264B50
:101D200005F03AFBFEF76AFE244905F060FB244B00
:101D3000214618603046FEF7A4FBFEF74CFE214B0F
:101D4000002205F029FBFEF759FE164905F04FFB6E
:101D50001D4B186050E748460021FEF7A3FD80B9EF
:101D600048462146FEF7BFFB00210546FEF731FB42
:101D7000002107462846FEF7B1FD002897D100252F
:101D800095E7214609F10040ECE700BF9C010020E7
:101D90009401002098010020C0C30020C001002051
:101DA000C40100200000C842A0010020A8010020BA
:101DB000A4010020B40100200000F03F0000A0407A
:101DC000BC01002000000840B801002030BCBDE884
:101DD000C08F000070B51B4805F0B6FA1A491948C3
:101DE000FFF772FD184919484FF090440A785A2AB3
:101DF00006D301224A600022402100F0BCFB19E01A
:101E000000224A6012494FF00102096803290AD2F0
:101E10004021054600F0AFFB282006F027FB0022FA
:101E20004021284609E00121204600F0A4FB64205F
:101E300006F01CFB002201212046BDE8704000F0A6
:101E40009ABB000050220020E80000200004004857
:101E5000BC000020F0B5AF4DAF4EB04BB04AB14919
:101E6000B1482DED0E8B83B0CDE9006502F03AFD4F
:101E7000AD48AE4CF7EE008AB0F90070A948678013
:101E800000EE107AB0F90030A548A380B8EEC08A01
:101E9000B0F90020A14800EE103AE280B0F900103D
:101EA000F8EEC09A00EE102A2181B6F90000B8EED3
:101EB000C09A00EE101A6081B5F90050F8EEC0DA51
:101EC00000EE100AA58184ED088AB8EEC0DA00EEB3
:101ED000105AC4ED099A84ED0A9AF8EEC0AAC4ED2E
:101EE0000BDA18EE100A84ED0CDA914DC4ED0DAA50
:101EF0009FED900ADFED900AA84202DA28EE00EA90
:101F000005E038EE601AB0EE68EA01EE40EA19EE3C
:101F1000900AA84202DA69EE808A03E039EEE01AFC
:101F200041EE408A19EE100AA84202DA69EE00EA90
:101F300003E079EE600A60EE80EA88EEAEAA1AEE5F
:101F4000100AFEF748FD41EC100B03F04DFC9FED2D
:101F50007BBB51EC100B53EC1B2BFEF7B1FB9FED41
:101F600079CB53EC1C2BFEF720FCFEF747FD8EEEE1
:101F70002E0A08EE900AC4ED0E8A10EE100AFEF743
:101F80002AFD41EC100B03F02FFC53EC1B2B51EC02
:101F9000100BFEF795FB53EC1C2BFEF706FCFEF72F
:101FA0002DFD0EEE100A1AEE100A84ED0FEAFEF770
:101FB00012FD41EC100B03F017FC53EC1B2B51EC02
:101FC000100BFEF77DFB53EC1C2BFEF7EEFBFEF730
:101FD00015FD00EE100A18EE100A84ED100AA84252
:101FE00003DDF1EE4E0AC4ED0F0A19EE900AA84285
:101FF00003DDF1EE680AC4ED0E0A19EE100AA842DC
:1020000003DDB1EE400A84ED100A1DEE900A4FF098
:102010008E459FED4E9BA8420ADA1DEE900AFEF710
:10202000DAFC53EC192BFEF7C0FBFEF7E7FCE0628D
:1020300094ED0B0A10EE100A9FED468A9FED46BB09
:10204000A8420CDD38EE400A10EE100AFEF7C3FC81
:1020500053EC1B2BFEF7A9FBFEF7D0FCE0621DEE54
:10206000100AA8420ADA1DEE100AFEF7B4FC53EC7F
:10207000192BFEF79AFBFEF7C1FC206394ED0C0AC6
:1020800010EE100AA8420CDD38EE400A10EE100ADD
:10209000FEF7A1FC53EC1B2BFEF787FBFEF7AEFC13
:1020A00020631AEE900AA8420ADA1AEE900AFEF7A6
:1020B00092FC53EC192BFEF778FBFEF79FFC606354
:1020C00094ED0D0A10EE100AA8420CDD38EE400A1D
:1020D00010EE100AFEF77FFC53EC1B2BFEF765FB9E
:1020E000FEF78CFC6063D4ED0B0A94ED0E0A02F04F
:1020F00059FAD4ED0C0A94ED0F0A02F0D5FAD4ED9A
:102100000D0A94ED100A03B000F02AB8BDE8F040C3
:1021100002F048BB0A01002008010020060100204F
:102120000401002002010020000100202000002006
:1021300000F8FF4600008038000040470000000023
:10214000008066401F85EB51B81E094066666666D2
:10215000666630C000FF7F4766666666666630402A
:10216000BDEC088BBDEC06CBFFF7D0BF0EB54FF42E
:102170007A738DE80E00024601234621014800F0E3
:10218000E1FB0EBD9802002003B583B04FF47A73D3
:10219000012204A98DE80E0013460246462102489A
:1021A00000F086FC05B000BD9802002010B50021AB
:1021B0000120FFF7E9FF0021BDE810401020FFF7E4
:1021C000E3BF00000E4810B5C16C86B041F00101BC
:1021D000C164C06C4FF0904400F0010005900120F4
:1021E000009001900220029003906946204600F082
:1021F000E3F800220121204600F0BDF906B010BD31
:1022000000100240FEE7000010B54FF48061034863
:10221000FEF797F802490020C88010BD0504002091
:10222000C00000200022134602E08354521C92B2E8
:102230008A42FAD3704700000020054A0146115433
:10224000401CC0B2C828FAD3024801707047000091
:1022500005140020E00000207047202000F0A0B806
:102260000F4800B5C16C87B041F00201C164C06C79
:10227000694600F002000590202000900948019076
:1022800001200290084800F097F800220221172050
:1022900000F0A4FD172000F083FD07B000BD000092
:1022A000001002400000211000040048704710B5E3
:1022B00090F825100024022903D00421C1630124D1
:1022C0001AE001680A6822F00E020A6001680A68D2
:1022D00022F001020A6090F84410036C01F01C0225
:1022E000012101FA02F25A6080F82510002180F8DD
:1022F0002410816B01B18847204610BD70B504469B
:1023000000F03EF90546601C02D004480078044401
:1023100000F036F9401BA042FAD370BD1C0100202A
:10232000F8B5202833D11A4C607800282FD02078B7
:10233000FF2530B90123A21C46211648009500F064
:102340006BFA207823281FD10026114A2670022319
:10235000D21C47210F48009500F0C8F90C48C01C5A
:10236000008840BA00EE100AB8EE400A10EE100ADB
:10237000FEF731FB9FED081B53EC112BFEF715FA0E
:10238000FEF73CFBA06066702078401C2070F8BD12
:10239000A400002098020020333333333333F33F5B
:1023A000044910B50A68024202D00860FFF7B8FF7E
:1023B00010BD0000140401402DE9FC4FDFF894A18A
:1023C000002301250AF1040B03244FF00F0C0BF13D
:1023D000040EB8E005FA03F632406FD04F68012FC3
:1023E00005D0022F03D0112F01D0122F17D1D0F812
:1023F00008905F0004FA07F829EA08090097D1F865
:102400000C8008FA07F848EA0908C0F8088047680D
:10241000B7430E79C6F300169E403E434660C66839
:102420004FEA430804FA08F7BE4301978F6807FA9A
:1024300008F73743C7604E68022E01D0122E13D121
:10244000DE0800EB86060096366A5F07FF0E0CFA80
:1024500007F926EA0906D1F8109009FA07F949EABE
:102460000609009EC6F820900668019FBE430F79BA
:1024700007F0030707FA08F7374307604E68F600CE
:1024800060D5354E376E47F001073766366E23F05C
:10249000030706F001060096304E3E44B146B6688A
:1024A0009F074FEA17780CFA08F7BE43B0F1904F38
:1024B00005D02B4FB84204D1012712E042E000279B
:1024C0000FE0284FB84201D102270AE0264FB84258
:1024D00001D1032705E0254FB84201D1042700E0D0
:1024E000072707FA08F73743C9F80870DAF80060D9
:1024F0005746D1F8048096435FEAC83800D51643A2
:102500003E60DBF800605F46D1F8048096435FEAE6
:10251000883800D516433E60DEF800607746D1F873
:10252000048096435FEAC82800D516433E60094FF1
:102530000C373E68D1F8048096435FEA882800D5BE
:1025400016433E605B1C0A6832FA03F67FF442AF22
:1025500000F00EB8000401400010024000000140ED
:102560000004004800080048000C00480010004823
:102570001CBCBDE8E08F0AB1816170478162704781
:1025800001488068704700001C01002090F841203D
:10259000202A24D190F84020012A20D0012280F85E
:1025A0004020242280F841200268136823F00103B0
:1025B00013600268136823F4805313600268136881
:1025C0000B43136001680A6842F001020A6020218F
:1025D00080F84110002180F8401008467047022022
:1025E000704790F84120202A22D190F84020012AFB
:1025F0001ED0012280F84020242280F84120026869
:10260000136823F0010313600268136823F47063F6
:1026100043EA0121116001680A6842F001020A6080
:10262000202180F84110002180F8401008467047B2
:102630000220704770B5040004D094F841000025D2
:1026400010B106E0012070BD84F84050204600F033
:10265000DFFA242084F841002068016821F001019C
:1026600001606068216820F07060086120688168FE
:1026700021F400418160E0680128A06807D040F49F
:10268000044021688860E068022803D006E040F436
:102690000040F6E721684FF4006048602068416818
:1026A000114A114341602068C16821F40041C160B2
:1026B000D4E904010843A16940EA01202168C86007
:1026C000D4E907010843216808602068016841F0E7
:1026D000010101606564202084F84100256384F8CD
:1026E0004250002070BD0000008000022DE9F84F2C
:1026F000044690F84100DDF828A01F4690468B461E
:1027000020287ED194F8400001287AD0012084F856
:102710004000FFF735FF0646012200901923D10340
:10272000204601F083FEE0BB222084F84100102007
:1027300084F8420000256564C4F8248067856563D9
:10274000618D3148FF274FF080784FF00079FF29E5
:1027500003D927853A46009039E0618D21850090A4
:102760003AE05946204601F04BFE13E001F08AFEA4
:10277000B8B92068406A616A0870606A401C60628B
:10278000208D401E80B22085618D491E6185618D3E
:1027900001B168B1608D3246002851462046E5D12E
:1027A00000E002E001F0B0FED0B1012000F030B84E
:1027B0005346002280212046009601F037FE002873
:1027C000F3D1608DFF2804D927853A46009543460A
:1027D000C7E7608D2085009594F828204B46C0E718
:1027E00021682020C86121684A68084B1A404A6065
:1027F00084F8410084F8425084F840500020D5E726
:10280000FFE70220D2E700000024008000E800FE7D
:1028100018BCBDE8E08F00002DE9F84F044690F8A1
:102820004100DDF828A01F4690468B4620287ED127
:1028300094F8400001287AD0012084F84000FFF786
:102840009FFE0646012200901923D103204601F085
:10285000EDFDE0BB212084F84100102084F8420007
:1028600000256564C4F8248067856563618D3148FF
:10287000FF274FF080784FF00079FF2903D9278593
:102880003A46009039E0618D218500903AE0594642
:10289000204601F0B5FD13E001F05CFEB8B9606AB6
:1028A000216800788862606A401C6062608D401E0A
:1028B0006085208D401E80B22085618D01B168B198
:1028C000608D3246002851462046E5D100E002E006
:1028D00001F01AFED0B1012000F030B853460022BA
:1028E00080212046009601F0A1FD0028F3D1608DE3
:1028F000FF2804D927853A4600954346C7E7608DEF
:102900002085009594F828204B46C0E721682020B8
:10291000C86121684A68084B1A404A6084F841003F
:1029200084F8425084F840500020D5E7FFE70220A9
:10293000D2E700000020008000E800FE18BCBDE8DF
:10294000E08F00002DE9FF4F83B00446DDE91087DA
:1029500090F84100DDF848909A469346202874D1BB
:102960005FEA080014D09FB194F8400001286CD0B1
:10297000012084F84000FFF703FE06460122009084
:102980001923D103204601F051FD002871D103E045
:102990004FF4007060646CE0222084F84100402015
:1029A00084F8420000256564C4F824806785656367
:1029B000CDE9009653465A462046049901F0BCFCE6
:1029C00010B184F8405054E0618D3548FF274FF036
:1029D00080784FF0007AFF2904D927853A4643468C
:1029E000009005E0618D2185009094F828205346E1
:1029F0002046049901F004FD4B46002204212046A4
:102A0000009601F013FDA0BB2068406A616A08705F
:102A1000606A401C6062208D401E81B22185608DFD
:102A2000401E6085608DD8B1D1B94B46002280210F
:102A30002046009601F0FAFCD8B9608DFF2805D930
:102A400027853A464346009506E026E0608D2085BE
:102A5000009594F8282053462046049901F0D0FCB4
:102A6000608D0028C8D132464946204601F04CFD11
:102A700018B1012007B000F017B821682020C86104
:102A800021684A68074B1A404A6084F8410084F87C
:102A9000425084F840500020ECE70220EAE70000B2
:102AA0000024008000E800FE30BCBDE8C08F0000BC
:102AB0002DE9FF4F83B00446DDE9108790F841000F
:102AC000DDF848909A469346202871D15FEA0800C5
:102AD00014D09FB194F84000012869D0012084F8F7
:102AE0004000FFF74DFD0646012200901923D10357
:102AF000204601F09BFC00286ED103E04FF40070EB
:102B0000606469E0212084F84100402084F842009C
:102B100000256564C4F8248067856563CDE9009667
:102B200053465A462046049901F038FC10B184F807
:102B3000405051E0608DFF274FF080784FF0007AD1
:102B4000FF2804D927853A464346009505E0608D65
:102B50002085009594F8282053462046049901F0DA
:102B60004FFC32464946204601F0F4FCA0BB606AA7
:102B7000216800788862606A401C6062608D401E37
:102B80006085208D401E80B22085618DD9B1D0B97D
:102B90004B46002280212046009601F047FCD8B920
:102BA000608DFF2805D927853A464346009506E003
:102BB00026E0608D2085009594F828205346204615
:102BC000049901F01DFC608D0028CAD132464946A7
:102BD000204601F099FC18B1012007B000F014B8AC
:102BE00020682021C16120684268064B1A4042607B
:102BF00084F8411084F8425084F840500020ECE7FB
:102C00000220EAE700E800FE30BCBDE8C08F00000B
:102C100070B586B0044614216846FDF792FB2F4E2E
:102C200025682F4C1221012203200423B54228D10C
:102C3000E56C45F00205E564E56C05F002050595D7
:102C400005020095CDE90112CDE903036946254847
:102C5000FFF7B2FBA06D40F40010A065A06D00224C
:102C600000F40010059011461F2000F0B7F81F2057
:102C700000F0A7F800221146202000F0AFF8202035
:102C800028E0194EB54227D1E56C45F00405E5640E
:102C9000E56C8DE8070003AE05F0040586E8290021
:102CA00069461248FFF788FBA06D40F40000A0655C
:102CB000A06D002200F4000005901146482000F0AD
:102CC0008DF8482000F07DF800221146492000F0E0
:102CD00085F8492000F075F806B070BD005400403A
:102CE0000010024000040048005C0040000800485A
:102CF0000248816802781144816070471C010020FD
:102D000010B50024052000F089F8002000F008F834
:102D100008B1012401E000F025F8204610BD0000B4
:102D200070B50E4E05460024307898B14FF47A7194
:102D3000B1FBF0F00A490968B1FBF0F000F0B8FF10
:102D400040B9102D06D200222946501E00F046F848
:102D5000756000E00124204670BD00001C010020C9
:102D6000280100200D4808B5016E41F001010166FF
:102D7000016E01F001010091816D41F0805181658A
:102D8000806D002200F0805000901146052000F078
:102D900025F8BDE80840052000F013B800100240F7
:102DA00000280DDB00F01F02012191404009800046
:102DB00000F1E020C0F88011BFF34F8FBFF36F8F99
:102DC0007047002809DB00F01F02012191404009F3
:102DD000800000F1E020C0F800117047F0B40E4B05
:102DE0001B680C46C3F30223C3F10705042D00D969
:102DF0000425191D072901D2002300E0DB1E01264E
:102E000006FA05F1491E214099409E40761E164063
:102E10003143F0BC02F0D8BC0CED00E0064900F0F4
:102E2000070208684FF6FF03184040EA0220034AF1
:102E300010430860704700000CED00E00000FA0548
:102E40001649B0F5007F0868C0F3412009D0022878
:102E500005D0086820F4C06040F48060086000205D
:102E600070470128FBD0086820F4C06040F400706F
:102E700008600B483222006850430A4AB0FBF2F067
:102E8000401C00E0401E4A69520501D50028F9D1D6
:102E900048694005E3D503207047000000700040FA
:102EA0002801002040420F000248006800F4C06082
:102EB00070470000007000402DE9F84F04460027DD
:102EC0000088A84D3E46000515D5606C60B1B0F590
:102ED000000F04D0B0F5400F2BD001270AE0E868BE
:102EE00040F48030E86024E00021201D01F048FE1D
:102EF00007001ED03E46206880033AD5A86D4FF0EB
:102F00000008C00009D4A86D40F08050A865A86DE5
:102F10004FF0010800F080500090DFF84CA2DAF882
:102F2000001041F48071CAF80010FFF729FB8146B8
:102F300010E0D5F88800616C20F440000843C5F823
:102F40008800D8E7FFF71CFBA0EB0900022801D995
:102F5000032705E0DAF80000C005F3D5002F7DD087
:102F60004FEA0706B8F1000F03D0A86D20F080509B
:102F7000A8652078C00707D0D5F88800216A20F01E
:102F800003000843C5F888002078800707D5D5F8E6
:102F90008800616A20F00C000843C5F8880020789A
:102FA000400707D5D5F88800A16A20F03000084313
:102FB000C5F888002078800607D5D5F88800E16A32
:102FC00020F440600843C5F888002088800507D5B4
:102FD000D5F88800E16B20F440200843C5F888004C
:102FE0002088400507D5D5F88800216C20F44010D2
:102FF0000843C5F888002078400607D5D5F8880032
:10300000216B20F440500843C5F888002078000662
:1030100007D5D5F88800616B20F440400843C5F817
:1030200088002088C00507D5D5F88800A16B20F45A
:1030300040300843C5F8880020684FF0006700035F
:103040004FF0806850D5D5F88800A16C20F0406022
:103050000843C5F88800A06CB84200E005E03BD109
:10306000E86840F48010E8603EE0D5F8900010F485
:10307000407014D0A16D814211D0D5F89000D5F8E0
:10308000901020F4407041F48031C5F89010D5F8CC
:10309000901021F48031C5F89010C5F89000C00759
:1030A00011D0FFF76DFA074641F2883907E000BFFB
:1030B000FFF766FAC11B494501D9032652E7D5F847
:1030C00090008007F4D5D5F89000A16D20F44070F1
:1030D0000843C5F8900045E7404505D10121201D72
:1030E00001F04EFD00B106462068400317D5D5F823
:1030F0008800E16C20F040600843C5F88800E06C6F
:10310000B84204D1E86840F48010E86007E0404528
:1031100005D10121201D01F033FD00B106462088B4
:10312000400411D5D5F88800216D20F040500843A7
:10313000C5F88800206DB0F1805F05D10221201D07
:1031400001F01EFD00B106462088000406D555F8A2
:10315000880F616D20F0804008432860304600F001
:1031600005B80000001002400070004018BCBDE827
:10317000E08F00002DE9F0470F46050058D0404E83
:10318000306800F00700B84209D2306820F007002C
:1031900038433060306800F00700B84248D12878E2
:1031A000384CC0072CD06868032811D0022812D0F0
:1031B000216898B1490500293ADAA16821F0030194
:1031C0000143A160FFF7DCF9804641F2883910E045
:1031D00021688901EFE721688903ECE78907EAE7BD
:1031E000FFF7CEF9A0EB0801494502D90320BDE85D
:1031F000F087A068696800F00C00B0EB810FEFD198
:103200002878800705D5A068A96820F0F000084359
:10321000A060306800F00700B8420BD9306820F099
:10322000070038433060306800F00700B84201D032
:103230000120DCE72878400705D5A068E96820F47C
:10324000E0600843A0602878000706D5A0682969D7
:1032500020F4605040EAC100A06000F03FF8A1688F
:10326000094AC1F30311515C01F01F01C84007492D
:10327000086007480068BDE8F047FFF751BD00004F
:1032800000200240001002400889000828010020A8
:10329000200100200548064900688968054AC1F3F5
:1032A0000221515C01F01F01C84070472801002035
:1032B00000100240488900080548064900688968EE
:1032C000054AC1F3C221515C01F01F01C84070479B
:1032D00028010020001002404889000870B52549E7
:1032E000002318468A68CC6812F00C0204F003062A
:1032F000214C4FEA640509D00C2A05D0042A32D0AB
:10330000082A00D1284670BD012E10D10B681B077A
:1033100004D4D1F89430C3F3032302E00B68C3F361
:103320000313164E56F82330DAB10C2AEBD1C868D5
:1033300000F00300022818D0032818D01846CA68E5
:10334000CB68C2F30212C3F306234343521CB3FB00
:10335000F2F2C868C0F34160401C4000B2FBF0F0DC
:1033600070BD184670BD204670BD2046E7E7284670
:10337000E5E70000001002400024F400188900086E
:103380002DE9F84304006FD0FE4DA86800F00C064C
:10339000E86800F003072078C00664D576B10C2EEB
:1033A00001D1012F0AD0A069002828687AD040F006
:1033B00001002860FFF7E4F880465DE02868800798
:1033C00002D5A0690028DED0216A2868000703D54D
:1033D000286800F0F00004E0D5F89400F02202EA3A
:1033E0001010814216D9084601F060FC00283BD13C
:1033F000286840F0080028602868216A20F0F00062
:10340000084328606868E16920F47F4040EA0120B1
:10341000686016E0286840F0080028602868216A83
:1034200020F0F000084328606868E16920F47F40DC
:1034300040EA0120686026B9206A01F037FC0028C4
:10344000D5D1FFF74BFFA968CF4AC1F30311515CF7
:1034500001F01F01C840CD490860CD480068FFF762
:103460005FFC00287ED12EE0CAE000BFFFF788F89D
:10347000A0EB0800022876D828688007F6D52868CF
:1034800040F0080028602868216A20F0F000084316
:1034900028606868E16920F47F4040EA01206860A4
:1034A00011E0FFE720F001002860FFF769F880468F
:1034B00006E000BFFFF764F8A0EB08000228DAD8A6
:1034C00028688007F6D42078C00740D0082E18D08E
:1034D0000C2E01D1032F14D06068B0F5803F17D0B7
:1034E000B0F5A02F286817D020F480302860286815
:1034F00020F4802028606068E0B1FFF741F8804642
:1035000014E02868800322D56068002878D01EE087
:10351000286840F48030EDE740F480202860F7E729
:10352000FFF72EF8A0EB08006428A4D828688003D1
:10353000F6D50CE0FFF724F8804605E0FFF720F809
:10354000A0EB0800642896D828688003F6D4207879
:1035500080073BD5042E11D00C2E01D1022F0DD0A7
:10356000E06801E0B6E1FFE0002828681ED040F4E2
:1035700080702860FFF704F807460CE028684005D3
:103580000CD5E0680028C1D008E000BFFEF7F8FFC6
:10359000C01B022893D828684005F7D56868217CAD
:1035A00020F0F85040EA016068600FE020F480707D
:1035B0002860FEF7E5FF074605E000BFFEF7E0FFE5
:1035C000C01B0228B1D828684005F7D4207800072E
:1035D00029D560690028D5F8940012D040F0010088
:1035E000C5F89400FEF7CCFF074604E0FEF7C8FFDD
:1035F000C01B022899D8D5F894008007F6D512E0B0
:103600002BE120F00100C5F89400FEF7B9FF074652
:1036100005E000BFFEF7B4FFC01B022885D8D5F82F
:1036200094008007F6D42078400766D5A86D00275F
:10363000C00008D4A86D40F08050A865A86D01278F
:1036400000F08050009053480168C90512D4016809
:10365000814641F480710160FEF792FF804605E0EB
:10366000FEF78EFFA0EB080002287DD8D9F80000F5
:10367000C005F5D5A068012816D00528D5F890001A
:1036800017D020F00100C5F89000D5F8900020F088
:10369000040000BFC5F89000A06841F28839C0B1AD
:1036A000FEF76EFF80460FE0D5F8900040F0010075
:1036B000F0E740F00400C5F89000F5E7FEF760FF82
:1036C000A0EB080149454FD8D5F890008007F5D503
:1036D0000EE0FEF755FF804606E000BFFEF750FF04
:1036E000A0EB080149453FD8D5F890008007F5D4F4
:1036F0001FB1A86D20F08050A8652078800628D5DD
:10370000606A0028D5F8980012D040F00100C5F892
:103710009800FEF735FF074605E000BFFEF730FFD3
:10372000C01B022820D8D5F898008007F6D510E0F5
:1037300020F00100C5F89800FEF722FF074604E0DC
:10374000FEF71EFFC01B02280ED8D5F89800800790
:10375000F6D4A06AA8B1022824D00C2E7DD0286807
:1037600020F08070286000E0B3E02868000103D4F6
:10377000E86820F00300E860E86807490840E8606E
:103780000CE09FE00010024008890008280100209A
:103790002001002000700040FFFFEEFEFEF7F0FE6B
:1037A000044699E0E868E26A00F00301914226D1FC
:1037B000216B00F070020901103991421FD1626B38
:1037C00000F4FE41B1EB022F19D194F8382000F03B
:1037D0007841B1EBC26F12D1A18F00F4C002490849
:1037E0004905A1F50011914209D194F8401000F06B
:1037F000C06049084906A1F1007181424BD00C2EEE
:103800006FD0286840016CD4286820F08070286050
:10381000FEF7B6FE064604E0FEF7B2FE801B022865
:1038200057D828688001F7D4F4E90B016FF00F0234
:1038300002EB01110843218A5204490802EB41516D
:10384000A26841EA02210843217D4FF07E424908E7
:1038500002EB41610843217B00E042E040EAC160A5
:10386000E968214A11400843E860286840F0807008
:103870002860E86840F08070E860FEF781FE04464A
:1038800005E000BFFEF77CFE001B022821D8286857
:103890008001F7D523E02868800120D4286840F013
:1038A00080702860E86840F08070E860FEF768FE8D
:1038B000044604E0FEF764FE001B022809D82868CD
:1038C0008001F7D50BE000BFFEF75AFE001B02286F
:1038D00002D90320BDE8F88328688001F4D40020D1
:1038E000F8E70120F6E700008C809D0170B5040028
:1038F00009D0606A002540B125616561A56294F830
:103900005D0040B10CE0012070BD6068B0F5827FC1
:10391000F4D0E561F2E784F85C50204600F056F8F8
:10392000022084F85D002068016821F040010160F8
:10393000E1684FF4E062914201D9002001E04FF4C8
:103940008050B1F5706F02D0914200D0A562A1887D
:10395000228901F4827102F404421143227C02F0B4
:1039600002021143227D02F001021143228B02F474
:1039700000721143227F02F03802114394F8202094
:1039800002F080021143228D02F40052114322689A
:103990001160A169042202EA114194F8242000F484
:1039A000805002F01002114394F8342002F0080213
:1039B0001143A28902F470621143014320684160FF
:1039C0002566012084F85D00002070BD10B586B02A
:1039D000044614216846FCF7B4FC13492068884269
:1039E0001FD11248016E41F480510166016E01F44D
:1039F00080510591C16C41F00101C164C06C694600
:103A000000F001000590E0200090022001900020CD
:103A1000029003200390052004904FF09040FEF7A1
:103A2000CBFC06B010BD0000003001400010024089
:103A30002DE9F05F044690F85C0000270A9E1D46C1
:103A400092468B464FF0010901280ED0012084F8E0
:103A50005C00FEF795FD804694F85D0061680128E2
:103A60000CD0B1F5827F07D102E0022000F011B93D
:103A7000A16809B9042801D0022700E1BBF1000FB9
:103A800024D0BAF1000F21D005B394F85D000428CA
:103A900002D0052084F85D0000202066C4F840A014
:103AA000A4F84650A4F84450C4F838B0E587A58778
:103AB000E0642065E0684FF4E061884201D8012DA0
:103AC00006D92068426822F4805205E00127D6E03A
:103AD0002068426842F480524260206802685206C0
:103AE00003D4026842F040020260E06888426068E5
:103AF00045D908B1012D3AD1A06B21680088C86072
:103B0000A06B801CA063E08F401EE0872FE0206840
:103B1000816889070FD5E18F69B1B9F1010F0AD129
:103B2000A16B0988C160A06B801CA063E08F401E60
:103B3000E0874FF0000920688168C9070FD0B4F80A
:103B4000461061B1C068216C0880206C801C206424
:103B5000B4F84600401EA4F846004FF00109FEF7F5
:103B60000FFDA0EB0800B04201D3701C75D1E08FAF
:103B70000028CCD1B4F846000028C8D176E008B1BE
:103B8000012D6CD1E08F0128A06B08D92168008835
:103B9000C860A06B801CA063E08F801E07E02168D6
:103BA00000780873A06B401CA063E08F401EE08784
:103BB00055E02068816889071AD5E18FC1B1B9F154
:103BC000010F15D1E18F0129A16B07D90988C160C7
:103BD000A06B801CA063E08F801E06E00978017353
:103BE000A06B401CA063E08F401EE0874FF00009EF
:103BF00020688168C90728D0B4F8461029B3B4F802
:103C00004610012914D9C068216C0880206C801CE2
:103C10002064B4F84600801EA4F84600B4F84600BC
:103C2000012810D82068416841F4805141600AE0C1
:103C3000007B216C0870206C401C2064B4F84600A6
:103C4000401EA4F846004FF00109FEF799FCA0EBD6
:103C50000800B04202D3701C01D018E0BEB1E08F62
:103C60000028A6D1B4F846000028A2D14246314629
:103C7000204601F069F810B10127202020660120BC
:103C800084F85D00002084F85C003846EEE60327E7
:103C9000F5E730BCBDE8C09F4FF0E021042808697B
:103CA00003D020F004000861704740F00400FAE7F8
:103CB00010B5401EB0F1807F01D3012010BD4FF040
:103CC000E02460610F21601701F07EFD0020A061FB
:103CD00007202061002010BD704770477047704773
:103CE00070B50446006801694FF00005C9438907B3
:103CF00015D4C168C943890711D4E91E01610120A7
:103D00002077206880698007204602D0FFF7E7FF10
:103D100004E000F0A7F8204600F0A5F82577206819
:103D20000169C943490717D4C168C943490713D476
:103D30006FF004010161022020772068806910F48F
:103D4000407F204602D0FFF7CAFF04E000F08AF867
:103D5000204600F088F8257720680169C9430907E3
:103D600016D4C168C943090712D46FF00801016174
:103D7000042020772068C0698007204602D0FFF722
:103D8000AEFF04E000F06EF8204600F06CF82577F6
:103D900020680169C943C90617D4C168C943C90667
:103DA00013D46FF010010161082020772068C069EA
:103DB00010F4407F204602D0FFF791FF04E000F0AE
:103DC00051F8204600F04FF8257720680169C94373
:103DD000C90708D1C168C943C90704D1891E016157
:103DE000204600F041F820680169C943090609D45A
:103DF000C168C943090605D46FF0800101612046FE
:103E0000FFF76BFF20680169C943C90509D4C16880
:103E1000C943090605D46FF4807101612046FFF79C
:103E20005BFF20680169C943490609D4C168C943D9
:103E3000490605D46FF040010161204600F015F8F5
:103E400020680169C94389060BD4C168C943890642
:103E500007D46FF0200101612046BDE87040FFF7F4
:103E60003DBF70BD704770477047704770477047DF
:103E70002DE9F04102680446D0691168936840F664
:103E80000F0528424FF0000505D186067BD58E062A
:103E900079D5216E88E04D4F03F001060F4037437E
:103EA00071D0C70707D0CF0505D501271762E26F8C
:103EB00042F00102E267820708D5DA0706D02768D8
:103EC00002223A62E26F42F00402E267420708D53A
:103ED000DA0706D0236804221A62E26F42F0020277
:103EE000E26702070AD501F02002324306D02368B8
:103EF00008221A62E26F42F00802E267020509D561
:103F00004A0107D523684FF400621A62E26F42F05B
:103F10002002E267E26F002A2ED0800605D58806CF
:103F200003D5216E09B120468847E06F2168896872
:103F3000490602D410F0280F20D0204601F0F8F8EE
:103F400020688168490614D5816821F040018160AC
:103F5000E06E70B11E498163E06EFEF7A8F900289B
:103F60000AD0E06E816B00E02046BDE8F0410847D2
:103F700009E02046FFF77BFFBDE8F0812046FFF710
:103F800076FFE567F8E7C60209D55B0207D54FF46F
:103F9000801010622046BDE8F041FFF767BF0306BE
:103FA00005D50B0603D5616E0029DDD1E4E7400697
:103FB000E2D54806E0D51168204621F040011160A5
:103FC00020216167656600F039F9D5E7200100041A
:103FD0001D51000810B5040002D0606F10B107E059
:103FE000012010BD002084F87000204600F026F863
:103FF000242060672068016821F0010101602046EB
:1040000001F0A6F80128ECD0606A10B1204600F05B
:10401000F5FF2068416821F4904141602068816883
:1040200021F02A0181602068016841F001010160EE
:104030002046BDE8104001F045B800002DE9F047EA
:10404000064600683B493C4C0225012786B04FF0EC
:1040500090494FF4806A4FF0070888421ED1E06C07
:1040600040F00100E064E06C00F001000590206E7B
:1040700040F480402066206E00F480400590481592
:104080008DE8A100CDE9035869464846FEF794F94A
:1040900069464846CDF800A0FEF78EF927493068FA
:1040A00088421ED1E06C40F00100E064E06C00F05A
:1040B00001000590A06D40F40030A065A06D694638
:1040C00000F40030059004208DE8A100CDE90358EC
:1040D0004846FEF771F90820009069464846FEF709
:1040E0006BF917493068884221D1E06C40F002003A
:1040F000E064E06C00F002000590A06D40F48020C8
:10410000A065A06DCDF800A0CDE9015700F4802096
:10411000CDE904800B4C694603952046FEF74CF927
:104120004FF40060009069462046FEF745F906B05E
:10413000BDE8F08700380140001002400044004014
:1041400000480040000400482DE9F84F0446806F05
:104150009A4616460D4620286BD1EDB1E6B194F88B
:104160007000012865D0012084F870004FF000082D
:10417000C4F87C802220A067FEF702FAA4F85860F9
:104180008146A4F85A60A0684FF48053FF219842FA
:1041900008D122691AB11CE0012000F04CB840F2AD
:1041A000FF1116E07F2290B1B0F1805F14D0A4F827
:1041B0005C8000BFB4F85C70984201D1206990B176
:1041C0002E46002584F8708007F0FF0825E0266958
:1041D00036B9A4F85C10EDE7216909B13F21F8E791
:1041E000A4F85C20E6E70026ECE74B4600222021FD
:1041F0002046CDF800A001F0ADF808B10320CCE7CF
:104200002068808C8EB100EA080006F8010B00BF20
:10421000B4F85A00401EA4F85A00B4F85A00002816
:10422000E3D12020A0670020B7E7384025F8020B33
:10423000EEE70220B1E718BCBDE8E08F10B5114AE7
:104240000168914211D1104CB0F85000618B0844C4
:10425000C0F309006083608B218B884206D0208BDD
:10426000618B884200D3208B608B10BD72B64FF4F7
:1042700080610648FCF765F8002020836083207188
:1042800062B610BD00440040C0000020501A00205B
:10429000FEE701688A69D243920701D400228A624C
:1042A00000688169C943C90703D0816941F00101F0
:1042B000816170472DE9F0410446006890460E4642
:1042C0008069C043C00633D4002520272068806958
:1042D000C043800615D5701CF8D0FEF751F9A0EB4D
:1042E0000800B04201D8002EF0D154F8440F40F03D
:1042F000200044F804096770A57025700120BDE80E
:10430000F08121681020C8612068C7612046FFF74E
:10431000C0FF54F8440B4168064A114041602068D0
:1043200040F0040044F820096777A5772577E5E792
:104330000020E4E700E800FE2DE9F84304461646B5
:10434000DDE9089714489846DAB200900023204629
:1043500000F056F83A464946204600F0FBF8B8B956
:10436000F5B2B8F1010F08D02168300A88623A46E8
:104370004946204600F0EEF850B9206885624B4669
:10438000002240212046009700F050F8002800D07D
:104390000120BDE8F8830000002000802DE9F843EB
:1043A0000446164615489846DDE90897DAB2C30276
:1043B0000090204600F024F83A464946204600F096
:1043C000C9F8B8B9F5B2B8F1010F08D02168300AC0
:1043D00088623A464946204600F0BCF850B9206849
:1043E00085624B46002280212046009700F01EF88F
:1043F000002800D00120BDE8F883000000200080E4
:10440000F0B50568059C68684FF48066064FC1F3F7
:10441000090106EA545641EA02413E431943B043BA
:10442000214308436860F0BDFF63FF032DE9F041BD
:104430001D4617460E460446DDF8188008E0681C45
:1044400006D0FEF79DF8A0EB0800A8420BD855B1A6
:104450002068806936EA000012D00020B842EED011
:104460000020BDE8F08154F8440F40F0200044F8EB
:104470000409202060700020A07020700120F0E767
:104480000120EBE72DE9F041002690460F46044657
:10449000202525E0424639462046FFF70BFF78BB32
:1044A00020688069C043800613D420688169C943AD
:1044B000490701D4218DC1B9C56154F8440B416845
:1044C000104A1140416044F820696577A677267745
:1044D00016E0FEF755F8A0EB0800B84208D83FB147
:1044E00020688069C0434007D4D40020BDE8F08133
:1044F00054F8440F40F0200044F804096570267019
:104500000120F3E700E800FE70B516460D460446AC
:104510000DE0324629462046FFF7CCFE08B10120C7
:1045200070BDFEF72DF8801BA84207D835B1206872
:104530008069C0438006ECD4002070BD54F8440F5D
:1045400040F0200044F80409202060700020A07092
:104550002070E4E770B516460D4604460FE032467B
:1045600029462046FFF7A6FE08B1012070BD681C51
:1045700005D0FEF705F8801BA84207D835B12068A2
:104580008069C0438007EAD4002070BD54F8440F0E
:1045900040F0200044F80409202060700020A07042
:1045A0002070E2E73E483F4A00F1740190ED143A72
:1045B000D0ED073A90ED115A30EEC31AD0ED041A3F
:1045C00001EE235A91ED011A31EEC12AD1ED021A02
:1045D00030EE450A72EE615AC2ED005AD1ED032A5F
:1045E000B1EE622A82ED012A82ED022A90ED054A9F
:1045F00002EE231A82ED034AD1ED004A027842EE20
:10460000231A45EEA34A44EE232A02EE102A03EEB3
:10461000902A04EE102AB8EE422AF8EE633AB8EE79
:10462000444A24EE822A21EEA36A80ED162A80ED08
:10463000176AD0ED063A44EE023AC0ED183A82EE1F
:10464000234AC6EE235A03EE902A80ED194A44EE1F
:10465000424AF8EE633A04EE005A61EE233A04EE61
:10466000631AC0ED1A5A45EEC21A80ED1B2A45EEB8
:10467000E32AC0ED1C3A05EE803AC1ED004A81ED17
:10468000011AC1ED021AC1ED032A80ED150A30EEC0
:10469000C30A80ED115A80ED143A80ED0B0A704781
:1046A00020000020D80100203C483D4A00F1740160
:1046B00090ED143A90ED074AD0ED124A30EEC31A4D
:1046C000D0ED041A41EE044A91ED011A31EEC12AEF
:1046D000D1ED021A72EE615AC2ED005A91ED032A31
:1046E000F1EE422AC2ED012AC2ED022A90ED055AEE
:1046F00002EE841A82ED035AD1ED003A42EE841A9A
:1047000005EE042A45EE843A70EE645AC0ED155A5F
:10471000027802EE902A00EE102AF8EE622AB8EE35
:10472000400A21EEA26A23EE800A02EE902A80ED72
:10473000160A80ED176AF8EE622A90ED064A02EE3C
:10474000804A80ED184A80EE045AC6EE042A04EE30
:10475000102A80ED195A45EE403AB8EE444A45EE2B
:10476000254A21EE044A05EE441AC0ED1A2A80EDCE
:104770001B0A02EEC42A02EEA53A80ED1C4A42EE64
:10478000C01AE1EC013A81EC031A30EEC30AC0ED25
:10479000124A80ED143A80ED0C0A70472000002088
:1047A000D80100203C483D4A00F1740190ED143AD4
:1047B00090ED074AD0ED134A30EEC31AD0ED041A3B
:1047C00041EE044A91ED011A31EEC12AD1ED021AEF
:1047D00072EE615AC2ED005A91ED032AF1EE422ABF
:1047E000C2ED012AC2ED022A90ED055A02EE841AAA
:1047F00082ED035AD1ED003A42EE841A05EE042A06
:1048000045EE843A70EE645AC0ED155A027802EE15
:10481000902A00EE102AF8EE622AB8EE400A21EE45
:10482000A26A23EE800A02EE902A80ED160A80ED3D
:10483000176AF8EE622A90ED064A02EE804A80ED91
:10484000184A80EE045AC6EE042A04EE102A80EDBF
:10485000195A45EE403AB8EE444A45EE254A21EE53
:10486000044A05EE441AC0ED1A2A80ED1B0A02EE36
:10487000C42A02EEA53A80ED1C4A42EEC01AE1ECD1
:10488000013A81EC031A30EEC30AC0ED134A80ED01
:10489000143A80ED0C0A704720000020D801002057
:1048A0000E4810B5C16C86B041F00201C164C06C05
:1048B0000B4C00F002000590402000900120019078
:1048C00002200290039069462046FDF775FD002204
:1048D00040212046FDF74FFE06B010BD00100240FB
:1048E000000400482DE9F0470746DDE9089A1D4617
:1048F00090460E463B2000F05BF804463C2000F05A
:1049000057F840EA042038803D2000F051F8044672
:104910003E2000F04DF840EA042030803F2000F0B7
:1049200047F80446402000F043F840EA0420A8F885
:104930000000432000F03CF80446442000F038F822
:1049400040EA04202880452000F032F80446462042
:1049500000F02EF840EA0420A9F80000472000F0FB
:1049600027F80446482000F023F840EA0420AAF87B
:104970000000BDE8F08710B500F060F801216B2061
:1049800000F028F800216C2000F024F809211920FB
:1049900000F020F806211A2000F01CF818211B2036
:1049A00000F018F81821BDE810401C2000F012B8E3
:1049B0001FB5012103AACDE900210B460246029151
:1049C000D0210348FDF7BEFF9DF80C0004B010BDD8
:1049D0004C02002003B583B0012104AACDE90021D7
:1049E0000B4602460291D0210248FEF761F805B05D
:1049F00000BD00004C0200200E4810B5C16C86B00E
:104A000041F00401C164C06C0B4C00F0040005903F
:104A10001020009001200190002002900390694630
:104A20002046FDF7C9FC002210212046FDF7A3FD1A
:104A300006B010BD0010024000080048134810B531
:104A4000114901601249416000210122C0E90212AE
:104A5000016141618161C1610162FDF7EBFD08B156
:104A6000FDF724FC00210948FDF790FD08B1FDF792
:104A70001DFC00210548FDF7B4FD002803D0BDE86A
:104A80001040FDF713BC10BD005400404C02002044
:104A900091297000134810B5114901601249416015
:104AA00000210122C0E90212016141618161C161FD
:104AB0000162FDF7BFFD08B1FDF7F8FB00210948D1
:104AC000FDF764FD08B1FDF7F1FB00210548FDF796
:104AD00088FD002803D0BDE81040FDF7E7BB10BDFE
:104AE000005C004098020020EC9C901010B5114C26
:104AF0000F484FF4E06120604FF482706060002046
:104B0000C4E9020102212161012161614902A1611F
:104B10002021C4E907106062A0620720E0622046FD
:104B2000FEF7E4FE2068016841F04001016010BD1D
:104B300000300140E8010020FEE7FEE70E4810B516
:104B4000C16C86B041F00401C164C06C0B4C00F034
:104B5000040005900C20009001200190022002909A
:104B6000039069462046FDF727FC00220C212046D1
:104B7000FDF701FD06B010BD00100240000800481E
:104B80002DE9F041444C05468846E068002681073F
:104B900028680DD0E16801F00301814216D1A8B167
:104BA000E0686968C0F30210401C88420ED120E022
:104BB000012804D0022805D0032807D108E0216885
:104BC000890701E021684905002907DB01265FE02C
:104BD0002168890302D421684903F5E7E1686A681E
:104BE0006FF00F0321F0730103EB02121143014335
:104BF000E160206820F080602060FDF7C1FC07467E
:104C000005E000BFFDF7BCFCC01B022837D82068B8
:104C10000001F7D4B8F1000F18D0B8F1010F1DD082
:104C2000287D4FF07E41400801EB4060A96840EAD2
:104C300001202169194A114008432061206840F091
:104C400080602060FDF79CFC07461AE0A868297B7D
:104C5000000240EAC1602169114AECE7288A114943
:104C6000400801EB4050A96840EA012021690E4A42
:104C7000E1E700BFFDF784FCC01B022801D9032631
:104C800006E020680001F5D52069A9690843206184
:104C90003046BDE8F081000000100240FF80FFF9BF
:104CA000FF80FF070000E0FFFF809FFFF8B51C4D6D
:104CB00006460024A86DC00002D5FEF7F5F80DE009
:104CC000A86D40F08050A865A86D00F0805000905D
:104CD000FEF7EAF8A96D21F08051A965B0F5007FD3
:104CE00004D0802E07D94FF003040AE0802E08D9A3
:104CF000A02E01D804E001D1022402E0702E00D1E0
:104D000001240848016821F007012143016000687F
:104D100000F00700A04201D00120F8BD0020F8BD3E
:104D2000001002400020024001B582B01020009027
:104D3000012301AA02A90348FEF77AFE9DF80400A8
:104D40000EBD0000E8010020F8B515460E460B46E2
:104D50000092044600224FF4C05100F019F888B9BF
:104D60003346002280212046009500F079F848B9AA
:104D7000334600224FF4C0612046009500F008F849
:104D8000002804D0206E40F0200020660320F8BDEB
:104D90002DE9F84F994617460E4604460A9DFDF741
:104DA000EFFB411BA9EB0105FDF7EAFB8046294813
:104DB0004FF4C06A0068C0EBC00000EB8000000D3B
:104DC000684300903FE0564501D107B9007BB9F137
:104DD000FF3F38D0FDF7D4FBA0EB0800A84203D278
:104DE00015B1009860B32CE02068416821F0E00123
:104DF00041606068B0F5827F0BD1A068B0F5004FCC
:104E000002D0B0F5806F04D12068016821F0400124
:104E10000160A06AB0F5005F09D12068016821F443
:104E2000005101602068016841F4005101600120D7
:104E300084F85D00002084F85C00032000F00CB8CA
:104E40000025401E0090206881683140B942BAD1E7
:104E50000020F3E72801002018BCBDE8E08F000027
:104E60002DE9F8431E46914688460446089DFDF705
:104E700087FB401B351AFDF783FB07462548006872
:104E8000C0F3CB30684338E0701C37D0FDF778FBB7
:104E9000C01BA84203D215B1009860B32CE0206873
:104EA000416821F0E00141606068B0F5827F0BD17C
:104EB000A068B0F5004F02D0B0F5806F04D1206833
:104EC000016821F040010160A06AB0F5005F09D1DE
:104ED0002068016821F4005101602068016841F4F4
:104EE00000510160012084F85D00002084F85C001E
:104EF0000320BDE8F8830025401E009020688168EB
:104F000038EA010004D000214945BDD10020F0E776
:104F10000121F9E72801002010B5FDF7E9FE03F0B3
:104F2000C7FB012803D0BDE8104003F079BB10BDDA
:104F300010B5AEB044216846FBF703FA142128A847
:104F4000FBF7FFF95C2111A8FBF7FBF9102000909B
:104F50000120002460210690CDE907410221CDE91E
:104F60000A100C9028200D900720CDE90E0168460C
:104F70001091FEF705FA0F2028900320CDE92904AF
:104F80002B94042128A82C94FEF7F4F840F2451045
:104F90001B94119019941D941F9411A8FDF78CFF78
:104FA0004FF40070FDF74CFF2EB010BD0D480168A6
:104FB00041F4700101600C48016841F00101016099
:104FC000002181600268094B1A4002608214C260AD
:104FD000026822F48022026081610249C0038039A4
:104FE0000860704788ED00E000100240FFFFF6EA1D
:104FF0000148FEF775BE0000E402002090F824107E
:10500000C90706D001684A68836A22F400321A434D
:105010004A6090F82410890706D501684A68C36A77
:1050200022F480321A434A6090F82410490706D5CA
:1050300001684A68036B22F480221A434A6090F8A0
:105040002410090706D501684A68436B22F4004220
:105050001A434A6090F82410C90606D501688A6888
:10506000836B22F480521A438A6090F824108906D8
:1050700006D501688A68C36B22F400521A438A601D
:1050800090F82410490611D501684A68036C22F48F
:1050900080121A434A60016CB1F5801F06D1016885
:1050A0004A68436C22F4C0021A434A6090F8241004
:1050B000090606D501684A68806C22F40022024382
:1050C0004A607047F8B500260446C667FDF758FAEF
:1050D0000546206800686FF07E47000708D52B461C
:1050E00000224FF400112046009700F033F960B918
:1050F0002068006840070AD52B4600224FF4800143
:105100002046009700F026F908B10320F8BD2020C2
:105110006067A06784F870600020F8BD10B5806AF1
:105120000021A0F85A10A0F85210FEF7A0FE10BD02
:1051300001680A6822F490720A6001688A6822F0A5
:1051400001028A602021816700210166704700000A
:105150002DE9F0410446016880682269E369104343
:10516000626900251A431043724F0A68724B1A4055
:1051700002430A6020684168E26821F4405111430B
:1051800041602168A069B94201D0226A10438A684F
:1051900022F4306202438A606849236868488B427F
:1051A0000DD1D0F8880010F0030006D0012847D0B8
:1051B000022843D0032830D144E001212EE0614988
:1051C0008B420BD1D0F8880010F00C0034D00428AA
:1051D00036D0082832D00C281FD133E05A498B42F0
:1051E0000BD1D0F8880010F0300025D0102827D03F
:1051F000202823D0302810D124E0BB420DD1D0F894
:10520000880010F4406017D0B0F5806F18D0B0F56A
:10521000006F13D0B0F5406F14D010214B4A002618
:105220004FF40040BB422FD171B102290FD00429A5
:105230000FD0082975D10FE00021EFE70221EDE73B
:105240000421EBE70821E9E7FEF724F803E0104624
:1052500002E0FEF743F8E0B3626802EB42018142EC
:105260005FD8B0EB023F5CD8010E000273084FEA32
:105270003207C01959410023FBF716F8344AA0F54C
:10528000407191424FD94CE0E3694FF6EF7783428A
:1052900029D1092945D2DFE801F005080B440D4466
:1052A00044441000FDF7F6FF06E0FEF705F803E0C2
:1052B000104602E0FEF712F858B14100606801EBB9
:1052C0005001B1FBF0F080B2A0F11001B94228D832
:1052D00000E02AE04FF6F0710140C0F342000143C4
:1052E0002068C16021E009291BD2DFE801F0050830
:1052F0000B1A0D1A1A1A1000FDF7CCFF06E0FDF785
:10530000DBFF03E0104602E0FDF7E8FF68B16168EB
:1053100000EB5100B0FBF1F080B2A0F11001B942F6
:1053200001D9012501E02168C86026662846666625
:10533000BDE8F08100800040F369FFEF00380140D4
:105340000010024000440040004800400024F400E7
:10535000FFFC0F002DE9F0479A4617460E4604461B
:105360004FF000094FF02008089D39E0681C37D045
:10537000FDF706F9A0EB0A00A84222D80DB3206879
:10538000016849072CD5C069C043000528D42168AD
:105390004FF4006008622068016821F4D071016058
:1053A0002068816821F001018160C4F87480C4F82C
:1053B0007880C4F87C8000BF84F870900320BDE83A
:1053C000F0872068016821F4D0710160206881684D
:1053D00021F001018160C4F87480C4F87880EBE7A3
:1053E0002068C06936EA000004D00020B842BDD071
:1053F0000020E4E70120F9E72DE9F843364800688A
:10540000C069DFF8D880C043354C80064FF00005F6
:105410004FF4806638D40023012269462E48FEF7F7
:1054200093FE9DF80010242900D1E580E2884046D3
:1054300008F80210521C97B2E78098F80020242A3E
:1054400008D102794D2A05D198F80500432801D1E9
:105450000A2903D0B7421BD3E68018E01F48502129
:105460008938FAF76EFF1D493A46A1F18900FAF72B
:105470004FFF1A490120893981F85000E5803146F3
:105480001648FAF75EFF03E0E088B04200D3E680FA
:10549000E08940F40040E081010414D441049DF807
:1054A000001004D50A290DD140F4004012E00D2966
:1054B0000ED0C0F30D03401C80B208F80310E08149
:1054C000B04200D3E5810448FEF7D2FCBDE8F88382
:1054D00040F48040E081F6E7D0140020050400206D
:1054E000C000002038B52E4D2868C0692D4CC0433F
:1054F000800634D46423012269462846FEF724FE40
:10550000208A0021B0F5806F00D32182264A208AAC
:105510009DF800301354401C80B2208203281ED313
:10552000104410F8032C312A02D0302A0AD016E099
:1055300010F8021C312912D110F8011C30290ED1AB
:10554000012107E010F8022C302A08D110F8012CB4
:10555000312A04D1E1700321C01EFCF763FE2868E4
:10556000C169090618D50168090615D5A18BE28B1A
:1055700091420AD00D48E18B405C0D490880E08BD8
:10558000401CC0F30900E08303E0016821F08001C2
:1055900001602968802008620148FEF769FC38BD77
:1055A00050150020C000002005140020501E0020CF
:1055B000284400402DE9F8434A480168CA691207A7
:1055C00005D508220A620168898C8DF800100068F0
:1055D000C169890669D5818CCDB22021016272B67C
:1055E000414C208B628B401CC0F309003D49803147
:1055F000904204D1628B521CC2F309026283228B57
:105600008D54208362B62079012740B972B6277184
:10561000208B618B884200D3208B608B62B6002682
:105620004FF4806940F2FF38762D03D020780128AE
:1056300008D011E049462D48FAF783FE268166829C
:10564000277002E02189414504D2284920890D5460
:10565000401C20810A2D02D0672D09D004E0608A09
:1056600040F40040608226706078012808D011E084
:1056700049461F48FAF765FE6681A682677002E018
:105680006189414504D21A4960890D54401C6081EA
:105690000A2D02D0792D09D004E0A08A40F4804080
:1056A000A0826670A078012808D016E0494611480B
:1056B000FAF747FEA681E682A77002E0A18941457C
:1056C00004D20C49A0890D54401CA0810A2D04D19C
:1056D000E08A40F40050E082A670BDE8F84301483B
:1056E000FEF7C6BBD0150020C00000200508002032
:1056F000050C002005100020F0B50023EFF3108505
:1057000072B61A46134C144F12E0A68BB4F81EC0A2
:10571000761CC6F3090666450CD010F802C0B4F832
:105720001CE007F80EC0A6835B1C521C9BB292B211
:105730008A42EAD32BB109480068026842F080022D
:10574000026085F310888B4201D10120F0BD00205A
:10575000F0BD0000C0000020501E002050150020A9
:10576000FEE700000FB47CB50C0009AD01D0611E4E
:1057700000E00021CDE90001064B6A462946089861
:1057800001F0BAF9002C02D0009A002111707CBC03
:105790005DF814FB0572000803B4019841000098FD
:1057A00050EAC12018BF04204A0D18BF40F0010084
:1057B00040F2FF72B2EB515F08BF40F002000128D7
:1057C00008BF052002B070470907090E002804DB56
:1057D00000F1E02080F80014704700F00F0000F1A5
:1057E000E02080F8141D704770B59B482DED020B2A
:1057F0002DED068B079D25F00044A04218DC97484C
:10580000844202DC0AD1069840B19DED060BBDEC46
:10581000068B02B0BDE8704001F042B8002DCCBF4D
:105820009FED8F0B9FED900BBDEC068B02B070BD12
:105830008F48A04215DD8F48A042D8BF4FF0FF34FB
:1058400058DD9DED060B51EC100BFFF7A5FF04286A
:1058500008BF01F059F89DED060BBDEC068B02B0B8
:1058600070BD9DED060B51EC100B01F061FDCDE913
:10587000060181489FED828BA0423CDD8248A04218
:105880001FDD00249FED82AB9DED060B53EC1A2B20
:1058900051EC100BFAF765FE9DED060B41EC190B70
:1058A00053EC1A2B51EC100BFAF70AFF53EC182BA0
:1058B000FAF7F8FE53EC192BFAF777FFCDE906015A
:1058C00049E09DED060B012453EC182B51EC100B15
:1058D000FAF747FE9DED060B41EC190B53EC182B24
:1058E00051EC100BFAF7DEFE53EC192BFAF75DFFC3
:1058F000CDE906012FE06848A0421FDD02249FED9C
:10590000689B9DED060B53EC192B51EC100BFAF72D
:10591000D7FE53EC182BFAF724FE9DED060B41EC55
:10592000180B53EC192B51EC100BFAF7BBFE53EC90
:10593000182BFAF73AFFCDE906010CE09DED060BB6
:10594000032453EC102B9FED580B51EC100BFAF77E
:105950002CFFCDE906019DED060B53EC102B51EC0D
:10596000100BFAF7ADFE41EC180B53EC182BFAF7BD
:10597000A7FE41EC190B4E480621B0EE490AF0EEA5
:10598000690A784400F0F8FE53EC182B51EC100B28
:10599000FAF796FE41EC180B4648B0EE490AF0EED5
:1059A000690A0521784400F0E7FE53EC192B51EC0D
:1059B000100BFAF785FE41EC100B51EC180B53EC71
:1059C000102B002C0EDAFAF7CCFD9DED061B53ECE4
:1059D000112BFAF775FE9DED061B53EC112BFAF710
:1059E00064FE35E0FAF7BDFD9DED061B53EC112B6F
:1059F000FAF766FE41EC100B2F48784400EBC40028
:105A000090ED001B51EC100B53EC112BFAF74AFEF2
:105A10009DED061B53EC112BFAF744FE41EC100BE5
:105A20002648784400EBC40090ED001B51EC100BAD
:105A300053EC112BFAF739FE41EC100B002DA2BFED
:105A4000BDEC068B02B070BD51EC100B81F0004133
:105A500041EC100B01E70000000010440000F07F53
:105A6000182D4454FB21F93F182D4454FB21F9BF54
:105A70000000DC3F0000203E0000F33F000000007B
:105A8000000000000000F03F0000E63F00000000C2
:105A90000000000000000040008003400000000003
:105AA000000000000000F83F000000000000F0BF10
:105AB00032300000E82F0000722F00002A2F000073
:105AC00030B583B0044600F02FFF9FED090B05466B
:105AD0008DED000B002221466846FBF70EF82846A4
