:020000040800F2
:100000006024002045020008532800082D2700081E
:1000100051280008B1150008A531000800000000B3
:10002000000000000000000000000000D5280008CB
:10003000B31500080000000055280008D728000864
:100040005F0200085F0200085F0200085F0200080C
:100050005F0200085F0200085F0200085F020008FC
:100060005F0200085F0200085F0200085F020008EC
:100070005F0200085F0200085F0200085F020008DC
:100080005F0200085F0200085F0200085F020008CC
:100090005F0200085F0200085F0200085F020008BC
:1000A0005F0200085F0200085F0200085F020008AC
:1000B0005F02000800000000000000005F0200086E
:1000C0005F0200085F0200085F0200085F0200088C
:1000D0005F020008BD2D000825300008B13000087F
:1000E0005F0200085F02000800000000000000003E
:1000F0000000000000000000000000000000000000
:10010000000000005F020008000000005F0200081D
:1001100000000000000000005F0200085F0200080D
:100120005F0200085F0200085F0200085F0200082B
:100130005F02000800000000000000000000000056
:100140005F0200085F0200085F0200080000000074
:100150005F0200085F0200085F0200085F020008FB
:100160005F0200085F0200085F0200080000000054
:100170005F0200085F0200080000000000000000AD
:100180005F0200085F0200085F02000800F002F84A
:1001900000F049F80AA090E8000C82448344AAF1D8
:1001A0000107DA4501D100F03EF8AFF2090EBAE8D6
:1001B0000F0013F0010F18BFFB1A43F0010318479B
:1001C0004845000068450000103A24BF78C878C14F
:1001D000FAD8520724BF30C830C144BF04680C604D
:1001E000704700000023002400250026103A28BF95
:1001F00078C1FBD8520728BF30C148BF0B60704799
:10020000662903F06F84002070471FB503F065FC7A
:1002100000F098FC04000020002103F0D1FBE06016
:100220001FBD10B510BD00F08DFD1146FFF7EDFFAD
:1002300002F0F4FF00F0ABFD03B4FFF7F2FF03BCE4
:1002400002F0E0FF0948804709480047FEE7FEE763
:10025000FEE7FEE7FEE7FEE7FEE7FEE7FEE7FEE776
:1002600004480549054A064B704700004929000823
:100270008D010008601E0020602400206020002006
:1002800060200020704753EA020C00F069802DE9DD
:10029000F04B4FF00006002B1FBFB3FA83F503FAB3
:1002A00005F424FA05F65E4012BF1643B2FA82F551
:1002B00002FA05F4C5F120051EBF22FA05FC44EA46
:1002C0000C04203556EA044C4FEA144418BF641C51
:1002D0004FF000084FF00009904271EB030C39D346
:1002E000002919BFB1FA81F701FA07F6B0FA80F7D1
:1002F00000FA07F6C7F120071EBF20FA07FC46EAFE
:100300000C062037B6FBF4FCA7EB0507103F07F0FF
:100310001F0BCBF120060CFA0BFB2CFA06F644BFA0
:10032000B3460026202FA4BF5E464FF0000B5BEAC9
:10033000060C08BF4FF0010B19EB0B09ABFB027C5D
:1003400048EB0608C01B06FB02CC0BFB03CC71EB91
:100350000C01C1E70B46024641464846BDE8F08B1A
:1003600013B54FF000004FF00001AFF30080BDE87F
:100370001C4070470FB41CB50C0007AA009001D0B8
:100380002044401E074B7B4469460190069800F0CC
:10039000B8FB002C03D06946002000F0C5FB1CBC54
:1003A0005DF814FBA90700002DE9F0474FF0000AA3
:1003B00089460446C0F820A02046E1688847002806
:1003C00076D0252806D0D4E901219047206A401C28
:1003D0002062F1E7E168204600258847C4F81CA0A8
:1003E00006460027C4F818A02A2E09D0304602F08D
:1003F00002FF38B304EB8708303EC8F8186019E0F4
:1004000059F8041B204604EB87029161E168884794
:10041000012F064618D1E069002820DA25F02005D2
:100420001DE0D8F8180000EB800006EB40003038E3
:10043000C8F818002046E1688847064602F0DBFE4F
:100440000028EED1012F0AD02E2E08D12046E168D7
:1004500088477F1C0646022F45F02005C4DBA069B3
:10046000002803DA404245F00105A061E80701D009
:1004700025F01005B6B1A6F14100192802D82036A2
:1004800045F400654A463146204625604D46FFF753
:10049000B7FE58B1012806D0ED1D25F0070000F188
:1004A000080989E704E005F1040985E730468AE791
:1004B000206ABDE8F08740EA010310B59B070FD121
:1004C000042A0DD310C808C9121F9C42F8D020BAC4
:1004D00019BA884201D9012010BD4FF0FF3010BD7C
:1004E0001AB1D30703D0521C07E0002010BD10F84A
:1004F000013B11F8014B1B1B07D110F8013B11F810
:10050000014B1B1B01D1921EF1D1184610BD10B535
:10051000431C02E010F8011B71B18107FAD14FF0C2
:10052000013202C88C1A8C4314EAC211F9D0C01AE5
:100530000A0603D0C01E10BDC01A10BD0A0401D0A7
:10054000801E10BD0902FCD0401E10BD032A40F2DF
:10055000308010F0030C00F0158011F8013BBCF165
:10056000020F624498BF11F801CB00F8013B38BF7D
:1005700011F8013BA2F1040298BF00F801CB38BF8B
:1005800000F8013B11F0030300F02580083AC0F0A9
:10059000088051F8043B083A51F804CBA0E8081051
:1005A000F5E7121D5CBF51F8043B40F8043BAFF384
:1005B0000080D20724BF11F8013B11F801CB48BFDE
:1005C00011F8012B24BF00F8013B00F801CB48BF14
:1005D00000F8012B704710B5203AC0F00B80B1E84D
:1005E0001850203AA0E81850B1E81850A0E8185068
:1005F000BFF4F5AF5FEA027C24BFB1E81850A0E871
:10060000185044BF18C918C0BDE810405FEA827C8A
:1006100024BF51F8043B40F8043B08BF7047D207A1
:1006200028BF31F8023B48BF11F8012B28BF20F842
:10063000023B48BF00F8012B70474FF0000204292D
:10064000C0F0128010F0030C00F01B80CCF1040C01
:10065000BCF1020F18BF00F8012BA8BF20F8022B35
:10066000A1EB0C0100F00DB85FEAC17C24BF00F8DB
:10067000012B00F8012B48BF00F8012B70474FF009
:10068000000200B5134694469646203922BFA0E8E2
:100690000C50A0E80C50B1F12001BFF4F7AF0907EE
:1006A00028BFA0E80C5048BF0CC05DF804EB8900DF
:1006B00028BF40F8042B08BF704748BF20F8022B22
:1006C00011F0804F18BF00F8012B7047704770473A
:1006D0007047704770472DE9FF4F0C461E464FF09C
:1006E000FF378BB0D2E90001DDF860800A908A46BE
:1006F000C1F30A5505B93D46002108464FF00000F8
:10070000BAF1000F00F4400005DA00EB80004FF46E
:10071000400101EA50004FEA9059B9F1010F00DDA4
:10072000B9460A9850EA4A000ED044F61050A5F295
:10073000FF3545432F14B8F1000F1ED07542291E16
:100740001EDDC9F100021CE0B8F1010F4FF00000FE
:1007500001D0302103E0F24305E02154401CB042B7
:10076000FBDB30460022002121540B99C1F80880A0
:10077000C1E900200FB000F0BCB9BD1B6D1CDEE765
:100780004A4600DA694206A800F066FA06AB93E82A
:10079000070003AB83E8070050460A9900F040FBCE
:1007A0008DE80700A0F500501F3800900398002D39
:1007B0000ADD42F21F014A460844002303A90390C0
:1007C000684600F0A9FD09E0A0F500504A461F3830
:1007D000002303A90390684600F0B3FD8DE80700ED
:1007E0000004000C03D04FF0FF30410800E0104639
:1007F000B8F1000F03D00022009215461EE0751ECE
:1008000005D400F0A3F9303262556D1EF9D5B34618
:100810000122084302D000227F1C04E02078302807
:1008200001D100227F1E002A099784D01DE0112DDE
:1008300007DA00F08BF9303262556D1C50EA010284
:10084000F5D1084302D00098C8B10EE00021681E1F
:1008500005E0235C625C63542254401E491C8142C3
:10086000F7DBAB46A81B401E0990002004F80B00E4
:100870000B98099AC0F80880C0E9002B7AE7112686
:100880004FF0000857E72DE9F04F88460446D21D87
:1008900022F0070191B0D1E90001CDE90A0102F08F
:1008A00082FC02460B98C00F01D02D2007E0206883
:1008B000810701D52B2002E0202101EAC000032A94
:1008C000099001D0072A05DB03464146204600F087
:1008D00083F90BE12078800601D5E06900E006206D
:1008E000B8F1650F814606D0B8F1660F18D0B8F19F
:1008F000670F70D131E00020B9F1110F009001DBDA
:10090000112301E009F101030AAA01A90CA8FFF7CC
:10091000E2FEDDE90C70002609F10105834647E09F
:1009200001204B4600904FF000470AAA01A90CA8ED
:10093000FFF7D1FEDDE90DB00C995D46002610B938
:1009400009F101000D18B9EB050003D4C0F1FF3621
:1009500009F10105A5EB09002BE0B9F1010F01DA5E
:100960004FF001090020B9F1110F0090484601DD58
:10097000112300E003460AAA01A90CA8FFF7ABFE69
:10098000DDE90C704D4600268346207800070AD426
:10099000AB4500DA5D4601A8012D04DD411911F8CF
:1009A000011C302907D04F4502DA17F1040F04DA91
:1009B000012082460FE06D1EEEE7002F02DCED1BEA
:1009C0003E4403E0781CA84200DD7D1CB81B00F10A
:1009D000010A4FF000472078000703D4AA4501DB45
:1009E0004FF0FF3A0021B7F1004F0DF143088DF8A9
:1009F000431024D002202B23002F01DA7F422D2325
:100A00000A21021EA0F1010000DC5FB197FBF1FC9E
:100A100097FBF1F201FB1C7C17460CF1300C08F837
:100A200001CDEEE7A8F1010003702188090501D589
:100A3000452100E06521A0F1010800F8011C09989A
:100A40000FA9A1EB0807FF1D00B10120411901EB1F
:100A5000EA70A1693844081A401EA0612078C006D7
:100A600002D42046AFF30080099828B1D4E90121CF
:100A70009047206A401C20622078C00622D520467C
:100A8000AFF300801EE0002E04DBB34502DD01A8B9
:100A9000805D00E03020D4E901219047206A401CAD
:100AA0002062761CAAF101005FEA000A0AD100F078
:100AB00049F8C0680168405CD4E901219047206A88
:100AC000401C2062281EA5F10105DCDC07E0D4E90A
:100AD000012118F8010B9047206A401C2062381E43
:100AE000A7F10107F3DC2046AFF30080032011B02B
:100AF00041E630BCBDE8C08F01694A1C026108783C
:100B0000704700B58FB0CDE901310021059105494D
:100B10007944CDE9031011466846FFF745FC0FB054
:100B200000BD0000E5FFFFFF0A6802F8010B0A6044
:100B30007047D1E900239A4202D2531C0B60107017
:100B40007047000000487047201E002030B5B0F10B
:100B50000A024FEA900E71F100034EEA817EB0EB7B
:100B60000E0061EB91014FEA101E4EEA017E10EB80
:100B70000E0041EB11114FEA102E4EEA016E10EB00
:100B80000E0041EB11214FEA104E4EEA014E10EBE0
:100B90000E0041EB1141401841F100014FEAD00035
:100BA00040EA41704FEAD10110EB80054FEA810421
:100BB00044EA907444EB01046D1944EB0404521BA5
:100BC000A3414FF0000348BF0A3200D530BD401C9E
:100BD00041F1000130BD00002DE9F0411F460446FF
:100BE00003260168072A01F4006004DB08B116A59A
:100BF00005E016A503E008B115A500E015A521F054
:100C000010002060A069C01EA0610FB1401EA0614D
:100C10002046AFF300804FB1D4E901213846904718
:100C2000206A401C2062C01C206206E0206AFAE7AD
:100C3000D4E9012115F8010B9047761EF8D2204621
:100C4000AFF30080BDE8F0814E414E006E616E0052
:100C5000494E4600696E66002DE9F047814616460A
:100C60008AB0354878440DC88DE80D003248784484
:100C7000801C03AC0DC884E80D0041F69B3008448D
:100C8000372190FBF1F290FBF1F5A5F1800501FB16
:100C900012041B3C02D56442012000E00020DFF872
:100CA00098A080460027FA44AAF1BE0A0EE0E007A9
:100CB0000AD03246684607EB470101230AEB81015F
:100CC00000F03FFB8DE8070064107F1C002CEED184
:100CD000194F7F44AE3F19E0E80715D007EB041029
:100CE0000DF1180A90E80E008AE80E00C068F04284
:100CF00001D1981908903246012306A903A800F0F3
:100D000020FB03AB83E807006D10641C002DE3D1CA
:100D10004FF0010332466946B8F1000F03A802D034
:100D200000F0FAFA01E000F00CFBC9E90001C9F893
:100D300008200AB0BDE8F087883A000000487047F4
:100D4000001E00207546FFF7F9FFAE460500694614
:100D5000534620F00700854618B020B5FFF780FA0B
:100D6000BDE820404FF000064FF000074FF00008AC
:100D70004FF0000B21F00701AC46ACE8C009ACE82D
:100D8000C009ACE8C009ACE8C0098D46704710B591
:100D90000446AFF300802046BDE81040FFF74CBA90
:100DA0004FF0013C50F8042B51F8043B9A4221D1FA
:100DB000A2EB0C03934313EACC1317D150F8042B86
:100DC00051F8043B9A4215D1A2EB0C03934313EA6A
:100DD000CC130BD150F8042B51F8043B9A4209D1A3
:100DE000A2EB0C03934313EACC13DBD04FF00000CB
:100DF000704700BFD01A01BAB1FA81F101F01801B1
:100E000022FA01F0CB40C1F12001DBB2C0B2C01A1E
:100E10002CFA01F3D11A914311EAC311E6D17047BC
:100E20005FEA400C08BF91F0000F4FEA8C234FEAB5
:100E3000C12243EA51514FEA1C5018BF00F5F0405F
:100E40004FEA300018BF41F000415FEA6C5C00F0EF
:100E50002980BCF1FF3F08BF40F080407047130C71
:100E600006BF12044FF0100C4FF0000C130E04BF1D
:100E700012020CF1080C130F04BF12010CF1040C48
:100E8000930F04BF92000CF1020CD30F04BF520069
:100E90000CF1010C11464FF00002A0F11F00A0EB75
:100EA0000C00704711F0004F08BF704731F000414F
:100EB0003FF4D5AF0B0C06BF09044FF0100C4FF0F8
:100EC000000C0B0E04BF09020CF1080C0B0F04BF41
:100ED00009010CF1040C8B0F04BF89000CF1020C0A
:100EE000CB0F04BF49000CF1010CCCF12003A0EBA7
:100EF0000C0022FA03F302FA0CF241EA030100F1BA
:100F00000100704720F07F4C80EA030023F07F4708
:100F1000ACEB070303F57C5300F0004003F1FF0343
:100F20002DE980494FEA154B09B44FEA144325EAED
:100F30000B4E24EA03480FF2042606EB1327490858
:100F40003E785FEA320203FB0667C7F5000707FB3E
:100F500006F64FEA54374FEAD64606F1020607FB7B
:100F6000066CCCF1005C4FEA1C472CEA074C07FBEF
:100F700006F40CFB06F504EB15464FEA961634BF53
:100F800000204FF000404FEAD13706FB07FC4FEA44
:100F90001C4C0CFB0BF7D21B03FB0CF761EB07019E
:100FA0000CFB0EF7B0EB074072EB17420CFB08F797
:100FB00034BFA2EB0742B2EB074261EB17414FEAA5
:100FC0000C444FEA910706FB07FC4FEA1C4C0CFB54
:100FD0000BF7B0EBC74072EB573203FB0CF734BF93
:100FE000A2EBC742B2EBC74261EB57310CFB0EF7E5
:100FF000B0EBC70072EB57720CFB08F734BFA2EBE3
:10100000C702B2EBC70261EB5771039F4FEA8161E0
:1010100041EA921104EBCC044FEAD1374FEA8262E5
:1010200006FB07FC42EA90124FEA80604FEA1C4C34
:101030000CFB0BF7D21B03FB0CF761EB07010CFB5E
:101040000EF7B0EB074072EB17420CFB08F734BF0A
:10105000A2EB0742B2EB074261EB17414FEA8C5516
:101060004FEA910704EB9C2406FB07FC4FEA1C4C5B
:101070000CFB0BF7B0EBC74072EB573203FB0CF7DE
:1010800034BFA2EBC742B2EBC74261EB57310CFB56
:101090000EF7B0EBC70072EB57720CFB08F734BFCA
:1010A000A2EBC702B2EBC70261EB577115EB4C25FF
:1010B0004FEA816141EA92114FEA82624FEAD137E9
:1010C00042EA901206FB07FC44F100044FEA8060FC
:1010D0004FEA1C4C0CFB0BF7D21B03FB0CF761EB2C
:1010E00007010CFB0EF7B0EB074072EB17420CFB4D
:1010F00008F734BFA2EB0742B2EB074261EB17419E
:1011000015EB1C154FEA813141EA92414FEA8232D8
:1011100042EA90424FEA80304FEA0C7644F10004F4
:1011200048EA03434EEA0B484FF0000EB2EB080CBE
:1011300071EB030724BF624639464EEB0E0E4FF0AB
:10114000000B0018524149414BEB0B0BB2EB080C62
:1011500071EB03077BF1000B24BF624639464EEB6F
:101160000E0E4FF0000B0018524149414BEB0B0B98
:10117000B2EB080C71EB03077BF1000B24BF624656
:1011800039464EEB0E0E51EA020718BF46F0010633
:1011900016EB0E7655F1000254F1000103D5BDE8BF
:1011A0008901BDE80088BDE88901BDE80048B6199D
:1011B000524141EB0101A3F10103704780807F7E22
:1011C0007D7C7B7A797877767675747372717170BD
:1011D0006F6E6E6D6C6C6B6A6A696868676666656F
:1011E0006464636362616160605F5F5E5E5D5D5CFD
:1011F0005C5B5B5A5A59595858575756565555556E
:101200005454535352525251515050504F4F4F4ECD
:101210004E4D4D4D4C4C4C4B4B4B4A4A4A4949491B
:10122000484848474747474646464545454444445D
:10123000444343434342424242414141002B9C4686
:1012400030D477002BD01CB54FEA370703B44FF0EA
:1012500010004FF01001BAF1000F06D0BCF1000FE2
:10126000DCBF40F0080040F008014FF000000FBC68
:10127000BDE810400BF1010BBBF1010F08BF5FEAA5
:10128000170722BF12F1010211F101014FF00041D5
:1012900043F1000300F0004043EA00007047F9D337
:1012A0005708D0E746EA064613F1400F4FEA1646C4
:1012B0001FDD13F1200FDFBF16430A460021203344
:1012C0005B42BED0C3F1200746EA064602FA07F7A2
:1012D0004FEA164646EA0706C3F1200722FA03F250
:1012E00001FA07F721FA03F14FF0000342EA07027F
:1012F000A7E746EA020646EA06464FEA164646EAE7
:101300000106BCBF46EA0646360C4FF000034FF01C
:1013100000024FF0000194E72DE9804C9A46934675
:1013200070B491E8380007C831EA400C48BF34EA8D
:10133000430C03D5FFF7E6FDFFF780FFF0BCBDE8E7
:10134000008C2DE9804C9A46934670B491E83800A1
:1013500007C810F0804F08BF13F0804F03D100F092
:1013600005F8FFF76BFFF0BCBDE8008C20F07F476D
:1013700080EA030023F07F4C07EB0C03A3F57C53BA
:1013800000F00040A3F1FE0392F0000F00F0B380E4
:1013900095F0000F00F077802DE901494FEA1140E8
:1013A0004FEA144621EA004800FB06FC24EA0647FF
:1013B00008FB06F607FB08F800FB07F718EB0648E2
:1013C0004CEB164C4FEA124B18EB07484FEA154608
:1013D0004CEB174022EA0B4E0BFB06FC25EA0647B6
:1013E0000EFB06F607FB0EFE0BFB07F71EEB064E89
:1013F0004CEB164C4FF000061EEB074E4CEB174B18
:1014000018EB0B0840F1000018EB0E0B58EB00082E
:1014100040F100008F1A4FF000013CBFC943661B2A
:1014200014BFB5EB040C00213CBFC943F61B4FEAC7
:1014300017444EEA8E0E27EA04454FEA1C4704FB88
:1014400007622CEA074C05FB07F70CFB05F604FBCB
:101450000CFC16EB074642EB174216EB0C4642EB30
:101460001C421BEB060658EB0202414146EA9E066F
:1014700001D5BDE80189B619524141EB0101A3F143
:101480000103BDE801894FEA14454FEA114724EAF8
:10149000054621EA074C05FB07F406FB07F70CFBA2
:1014A00006F105FB0CFC11EB074144EB17444FEA36
:1014B000124711EB0C4144EB1C4422EA074C05FB9C
:1014C00007F206FB07F70CFB06F605FB0CFC16EB18
:1014D000074642EB174216EB0C4642EB1C456A18D6
:1014E00054F1000148BF7047B619524141EB010168
:1014F000A3F10103704795F0000F37D04FEA114276
:101500004FEA144721EA024624EA074C02FB07F19E
:1015100006FB07F70CFB06F402FB0CFC14EB07447C
:1015200041EB17414FEA154714EB0C4441EB1C41CA
:1015300025EA074C02FB07F506FB07F70CFB06F64E
:1015400002FB0CFC16EB074645EB174516EB0C4669
:1015500045EB1C42121951F1000148BF7047B61902
:10156000524141EB0101A3F1010370474FEA1445D9
:101570004FEA114724EA054621EA074C05FB07F12B
:1015800006FB07F70CFB06F24FF0000605FB0CFC10
:1015900012EB074241EB174112EB0C4251EB1C419D
:1015A00048BF7047921841EB0101A3F10103704756
:1015B000FEE7704772B6FEE710B590F825100022DE
:1015C000022905D00421C16380F82420012010BD28
:1015D00001680B6823F00E030B6001680B6823F0B1
:1015E00001030B6090F84410046C01F01C0301210E
:1015F00001FA03F3636080F8251080F82420104678
:1016000010BD10B590F825100024022903D0042144
:10161000C16301241AE001680A6822F00E020A6020
:1016200001680A6822F001020A6090F84410036C15
:1016300001F01C02012101FA02F25A6080F8251023
:10164000002180F82410816B01B18847204610BD2D
:101650002DE9F04FDFF8AC9100230325A9F1040B2D
:1016600085B04FF0010C0F2709F1040AABF1040E0D
:10167000BFE000BF0CFA03F6324075D00C7904F0DD
:101680000304012C01D0022C1BD1846800945C005F
:1016900005FA04F80494009C24EA08040094D1F8A4
:1016A0000C80049C08FA04F8009C48EA0408C0F87E
:1016B00008804468B4430E79C6F300169E40264362
:1016C00046600C79E443A4070AD0C4684FEA430893
:1016D00005FA08F6B4438E6806FA08F62643C66093
:1016E0000C7904F00304022C10D1DC0800EB840414
:1016F0000294246A5E074FEAD66807FA08F6B443F4
:101700000E6906FA08F62643029C266204684FEA30
:10171000430805FA08F6B4430E7906F0030606FA04
:1017200008F6264306604C6814F4403F60D0364CFF
:10173000266E46F001062666246E23F0030604F0AA
:1017400001040094314C34440294A4689E074FEA8B
:10175000167807FA08F6B443B0F1904F05D02C4E36
:10176000B04204D1012612E042E000260FE0294EEB
:10177000B04201D102260AE0274EB04201D1032631
:1017800005E0264EB04201D1042600E0072606FA05
:1017900008F62643029CA660D9F800604C46D1F8B2
:1017A000048096435FEAC82800D516432660DAF81D
:1017B00000405646D1F8048094435FEA882800D55B
:1017C00014433460DBF800405E46D1F80480944353
:1017D0005FEA883800D514433460DEF8004076466E
:1017E000D1F8048094435FEAC83800D514433460CC
:1017F0005B1C0A6832FA03F47FF43CAF05B000F0DA
:101800000FB8000008040140001002400000014031
:101810000004004800080048000C00480010004880
:1018200030BCBDE8C08F0AB18161704781627047EA
:10183000014880687047000000000020024881686D
:1018400002781144816070470000002010B5002428
:10185000032000F071F80F2000F008F808B101240F
:1018600001E000F025F8204610BD000070B50E4ED6
:1018700005460024307898B14FF47A71B1FBF0F04E
:101880000A490968B1FBF0F000F078FC40B9102D6E
:1018900006D200222946501E00F02EF8756000E0A6
:1018A0000124204670BD0000000000200C00002034
:1018B000094808B5016E41F001010166016E01F0B1
:1018C00001010091816D41F080518165806D00F0D2
:1018D0008050009008BD000000100240002809DB85
:1018E00000F01F02012191404009800000F1E0203A
:1018F000C0F8001170470000F0B40E4B1B680C4696
:10190000C3F30223C3F10705042D00D90425191DD3
:10191000072901D2002300E0DB1E012606FA05F1AB
:10192000491E214099409E40761E16403143F0BC2E
:1019300001F051BC0CED00E0064900F00702086818
:101940004FF6FF03184040EA0220034A10430860A4
:10195000704700000CED00E00000FA051649B0F5F4
:10196000007F0868C0F3412009D0022805D008682C
:1019700020F4C06040F480600860002070470128B7
:10198000FBD0086820F4C06040F4007008600B4889
:101990003222006850430A4AB0FBF2F0401C00E0DB
:1019A000401E4A69520501D50028F9D14869400511
:1019B000E3D5032070470000007000400C000020B9
:1019C00040420F000248006800F4C0607047000009
:1019D000007000402DE9F0470F4605006BD0494EDE
:1019E000306800F00700B84209D2306820F00700E4
:1019F00038433060306800F00700B8425BD1287887
:101A0000414C80070AD5A868A16801F0F00188421E
:101A100004D9A16821F0F0010143A1602878C00732
:101A20002CD06868032811D0022812D0216898B100
:101A3000490500293FDAA16821F003010143A160B3
:101A4000FFF7F6FE804641F2883910E021688901EF
:101A5000EFE721688903ECE78907EAE7FFF7E8FE8B
:101A6000A0EB0801494502D90320BDE8F087A06832
:101A7000696800F00C00B0EB810FEFD12878800787
:101A80000AD5A868A16801F0F001884204D2A168D3
:101A900021F0F0010143A160306800F00700B84276
:101AA0000BD9306820F0070038433060306800F010
:101AB0000700B84201D00120D7E72878400705D5B4
:101AC000A068E96820F4E0600843A0602878000777
:101AD00006D5A068296920F4605040EAC100A060E2
:101AE00000F03EF8A168094AC1F30311515C01F00E
:101AF0001F01C8400649086006480068BDE8F04775
:101B0000FFF7B4BE0020024000100240E83A00088F
:101B10000C00002004000020054806490068896880
:101B2000054AC1F30221515C01F01F01C840704712
:101B30000C00002000100240283B00080548064920
:101B400000688968054AC1F3C221515C01F01F0198
:101B5000C84070470C00002000100240283B0008DD
:101B600070B52549002318468A68CC6812F00C022B
:101B700004F00306214C4FEA640509D00C2A05D075
:101B8000042A32D0082A00D1284670BD012E10D177
:101B90000B681B0704D4D1F89430C3F3032302E08D
:101BA0000B68C3F30313164E56F82330DAB10C2A30
:101BB000EBD1C86800F00300022818D0032818D021
:101BC0001846CA68CB68C2F30212C3F30623434324
:101BD000521CB3FBF2F2C868C0F34160401C4000E5
:101BE000B2FBF0F070BD184670BD204670BD2046B7
:101BF000E7E72846E5E70000001002400024F40073
:101C0000F83A00082DE9F84304006FD0FA4DA868AF
:101C100000F00C06E86800F003072078C00664D5E1
:101C200076B10C2E01D1012F0AD0A06900282868B6
:101C30007AD040F001002860FFF7FAFD80465DE0B1
:101C40002868800702D5A0690028DED0216A2868AC
:101C5000000703D5286800F0F00004E0D5F89400F0
:101C6000F02202EA1010814216D9084600F0F4FD75
:101C700000283BD1286840F0080028602868216AC5
:101C800020F0F000084328606868E16920F47F4094
:101C900040EA0120686016E0286840F008002860EB
:101CA0002868216A20F0F000084328606868E1692C
:101CB00020F47F4040EA0120686026B9206A00F0E5
:101CC000CBFD0028D5D1FFF74BFFA968CB4AC1F364
:101CD0000311515C01F01F01C840C9490860C9489F
:101CE0000068FFF7C3FD00287ED12EE0CAE000BFE8
:101CF000FFF79EFDA0EB0800022876D82868800731
:101D0000F6D5286840F0080028602868216A20F08D
:101D1000F000084328606868E16920F47F4040EAE9
:101D20000120686011E0FFE720F001002860FFF764
:101D30007FFD804606E000BFFFF77AFDA0EB0800BC
:101D40000228DAD828688007F6D42078C00740D067
:101D5000082E18D00C2E01D1032F14D06068B0F5D6
:101D6000803F17D0B0F5A02F286817D020F480301E
:101D70002860286820F4802028606068E0B1FFF7C0
:101D800057FD804614E02868800322D5606800284B
:101D900078D01EE0286840F48030EDE740F48020E1
:101DA0002860F7E7FFF744FDA0EB08006428A4D8FB
:101DB00028688003F6D50CE0FFF73AFD804605E081
:101DC000FFF736FDA0EB0800642896D8286880034A
:101DD000F6D4207880073BD5042E11D00C2E01D1EB
:101DE000022F0DD0E06801E0AAE1FFE0002828689A
:101DF0001ED040F480702860FFF71AFD07460CE003
:101E0000286840050CD5E0680028C1D008E000BF74
:101E1000FFF70EFDC01B022893D828684005F7D5B0
:101E20006868217C20F0F85040EA016068600FE0AB
:101E300020F480702860FFF7FBFC074605E000BF38
:101E4000FFF7F6FCC01B0228B1D828684005F7D47C
:101E50002078000729D560690028D5F8940012D0B1
:101E600040F00100C5F89400FFF7E2FC074604E0EB
:101E7000FFF7DEFCC01B022899D8D5F89400800734
:101E8000F6D512E02BE120F00100C5F89400FFF731
:101E9000CFFC074605E000BFFFF7CAFCC01B0228C5
:101EA00085D8D5F894008007F6D42078400766D509
:101EB000A86D0027C00008D4A86D40F08050A86528
:101EC000A86D012700F0805000904F480168C905B7
:101ED00012D40168814641F480710160FFF7A8FCCB
:101EE000804605E0FFF7A4FCA0EB080002287DD89F
:101EF000D9F80000C005F5D5A068012816D005283E
:101F0000D5F8900017D020F00100C5F89000D5F862
:101F1000900020F0040000BFC5F89000A06841F2D6
:101F20008839C0B1FFF784FC80460FE0D5F89000F7
:101F300040F00100F0E740F00400C5F89000F5E73C
:101F4000FFF776FCA0EB080149454FD8D5F8900083
:101F50008007F5D50EE0FFF76BFC804606E000BF7A
:101F6000FFF766FCA0EB080149453FD8D5F8900083
:101F70008007F5D41FB1A86D20F08050A8652078A7
:101F8000800628D5606A0028D5F8980012D040F065
:101F90000100C5F89800FFF74BFC074605E000BFBD
:101FA000FFF746FCC01B022820D8D5F89800800710
:101FB000F6D510E020F00100C5F89800FFF738FCD6
:101FC000074604E0FFF734FCC01B02280ED8D5F802
:101FD00098008007F6D4A06AF0B3022816D00C2E21
:101FE0007DD0286820F08070286000E0A7E0FFF72F
:101FF0001FFC0446A6E0000000100240E83A00087A
:102000000C0000200400002000700040E868E26A34
:1020100000F00301914228D1216B00F07002090108
:102020001039914221D1626B00F4FE41B1EB022FD5
:102030001BD194F8382000F07841B1EBC26F14D175
:10204000A18F00F4C00249084905A1F50011914291
:102050000BD194F8401000E06AE04908490600F00E
:10206000C060A1F1007181424BD00C2E73D0286862
:10207000400170D4286820F080702860FFF7D8FBFA
:10208000064604E0FFF7D4FB801B022857D82868D7
:102090008001F7D4F4E90B016FF00F0202EB01119C
:1020A0000843218A5204490802EB4151A26841EADF
:1020B00002210843217D4FF07E42490802EB416135
:1020C0000843217B40EAC160E968244A1140084383
:1020D000E860286840F080702860E86800E03AE036
:1020E00040F08070E860FFF7A3FB044605E000BF06
:1020F000FFF79EFB001B022821D828688001F7D536
:1021000027E02868800124D4286840F08070286087
:10211000E86840F08070E860FFF78AFB044604E05E
:10212000FFF786FB001B022809D828688001F7D535
:102130000FE000BFFFF77CFB001B022802D9032041
:10214000BDE8F88328688001F4D4E86804490840B1
:10215000E8600020F4E70120F2E700008C809D0198
:10216000FCFFEEFE4FF0E0210428086903D020F0C8
:1021700004000861704740F00400FAE710B5401E03
:10218000B0F1807F01D3012010BD4FF0E0246061E9
:102190000F21601701F01FF80020A06107202061C7
:1021A000002010BD70477047704700002DE9F041D6
:1021B00002680446D0691168936840F60F0528420A
:1021C0004FF000054FF0020605D187067ED58F0639
:1021D0007CD5A16E33E1DFF894C203F0010701EA78
:1021E0000C0C57EA0C0C71D05FEAC07C0CD05FEA93
:1021F000C15C09D54FF0010CC2F820C0D4F884208E
:1022000042F00102C4F88420820709D5DA0707D01A
:1022100022681662D4F8842042F00402C4F88420B4
:1022200042070AD5DA0708D0236804221A62D4F8D4
:10223000842042F00202C4F8842002070CD501F089
:1022400020023A4308D0236808221A62D4F8842076
:1022500042F00802C4F8842002050BD54A0109D5D2
:1022600023684FF400621A62D4F8842042F02002FE
:10227000C4F88420D4F88420002A36D0800605D5FE
:10228000880603D5A16E09B120468847D4F884009A
:1022900021688968490602D410F0280F27D020460B
:1022A00000F01CFC2068806840061BD520680830C0
:1022B00050E8001F21F0400140E80012002AF5D14B
:1022C000606F78B16A498163606F00E015E0FFF7E5
:1022D00098F9002809D0606F816B00E02046BDE8C6
:1022E000F04108472046FFF75FFFBDE8F081204638
:1022F000FFF75AFFC4F88450F7E7D4F860C02027EE
:10230000BCF1010F7ED15FEAC06C7BD55FEAC16C86
:1023100078D5102010622068806840064FD5616F24
:102320000A6850680004000C3DD0B4F8583083426D
:1023300039D9A4F85A000868006880062BD42068B0
:1023400050E8001F21F4807140E80012002AF6D105
:102350002068083050E8001F21F0010140E8001219
:10236000002AF5D12068083050E8001F21F0400114
:1023700040E80012002AF5D1C4F880702566206874
:1023800050E8001F21F0100140E80012002AF6D1A9
:10239000606FFFF711F96666B4F85800B4F85A1088
:1023A000401A81B207E0B4F8581081429DD11068FC
:1023B00080069AD566662046FFF7F4FE95E7B4F8E6
:1023C0005800B4F85A10401A81B2B4F85A000028E4
:1023D0008BD0002989D0226852E8000F20F4907039
:1023E00042E80003002BF6D12068083050E8002FA7
:1023F00022F0010240E80023002BF5D1C4F88070E0
:10240000256600E00AE0A566226852E8000F20F089
:10241000100042E80003002BF6D1CBE7C60209D535
:102420005B0207D54FF4801010622046BDE8F041F2
:10243000FFF7B9BE020606D50A0604D5E16E0029EB
:102440007FF44CAF51E74006B8D54806B6D52046D4
:10245000026852E8001F21F0400142E80013002BFF
:10246000F6D1C767C56600F037F93EE720010004E2
:10247000C92A000810B5040002D0E06F10B107E0CF
:10248000012010BD002084F87800204600F026F8D6
:102490002420E0672068016821F001010160606A82
:1024A00010B1204600F058FA204600F03DFB01280C
:1024B000E7D02068416821F490414160206881683C
:1024C00021F02A0181602068016841F0010101606A
:1024D0002046BDE8104000F0A3BA00002DE9F04707
:1024E000064600683B493C4C0225012786B04FF068
:1024F00090494FF4806A4FF0070888421ED1E06C83
:1025000040F00100E064E06C00F001000590206EF6
:1025100040F480402066206E00F48040059048150D
:102520008DE8A100CDE9035869464846FFF790F8C9
:1025300069464846CDF800A0FFF78AF82749306879
:1025400088421ED1E06C40F00100E064E06C00F0D5
:1025500001000590A06D40F40030A065A06D6946B3
:1025600000F40030059004208DE8A100CDE9035867
:102570004846FFF76DF80820009069464846FFF787
:1025800067F817493068884221D1E06C40F00200BA
:10259000E064E06C00F002000590A06D40F4802043
:1025A000A065A06DCDF800A0CDE9015700F4802012
:1025B000CDE904800B4C694603952046FFF748F8A7
:1025C0004FF40060009069462046FFF741F806B0DE
:1025D000BDE8F08700380140001002400044004090
:1025E00000480040000400482DE9F84F0446D0F8A8
:1025F00080009B4616460D46202802D0022000F09F
:1026000067B8C5B1BEB10027C4F884702220C4F8F1
:10261000800027661C34FFF70BF9A6878246E68701
:1026200054F8140C4FF48053FF211C3C984207D1FE
:10263000226912B119E00120E1E740F2FF1114E034
:102640007F2280B1B0F1805F12D0A4F85C7000BF2F
:10265000B4F85C704FF02008984201D1206970B145
:102660002E4600250CE0266936B9A4F85C10EFE789
:10267000216909B13F21F8E7A4F85C20E8E70026CA
:1026800007F0FF09B4F85A00F0B1534600222021A8
:102690002046CDF800B000F047FB18B1C4F88080A8
:1026A0000320ACE72068808C56B100EA090006F8E8
:1026B000010B00BFB4F85A00401EA4F85A00E1E72D
:1026C000384025F8020BF5E7C4F88080002096E733
:1026D00018BCBDE8E08F000010B5114A01689142B6
:1026E00011D1104CB0F85000E1880844C0F3090043
:1026F000E080E088A188884206D0A088E1888842EE
:1027000000D3A088E08810BD72B64FF480610648FF
:10271000FDF7B5FF0020A080E080207062B610BDFC
:102720000048004014000020C0060020FEE7000022
:1027300010B586B014216846FDF7A1FF1648C16C9C
:1027400041F08001C164C16C01F080010591C16C50
:1027500041F00101C164C16C01F001010591C16C3E
:1027600041F00201C164C06C4FF0904400F00200DF
:102770000590002210212046FFF755F81020009008
:1027800001200021CDE90101039169462046FEF7B1
:102790005FFF06B010BD0000001002400D4810B5EC
:1027A0000B4901604FF4E1314160002181600C224E
:1027B000C160C0E904128161C16101624162FFF739
:1027C00059FE002803D0BDE81040FEF7F3BE10BD4F
:1027D00000380140280000200D4810B50B49016069
:1027E0004FF4E1314160002181600C22C160C0E9F9
:1027F00004128161C16101624162FFF73BFE002862
:1028000003D0BDE81040FEF7D5BE10BD0044004027
:10281000B00000200D4810B50B4901604FF4E131C4
:102820004160002181600C22C160C0E90412816115
:10283000C16101624162FFF71DFE002803D0BDE8BF
:102840001040FEF7B7BE10BD004800403801002020
:10285000FEE7FEE770470000F8B51C4D0646002471
:10286000A86DC00002D5FFF7ADF80DE0A86D40F0EF
:102870008050A865A86D00F080500090FFF7A2F886
:10288000A96D21F08051A965B0F5007F04D0802E9C
:1028900007D94FF003040AE0802E08D9A02E01D8F2
:1028A00004E001D1022402E0702E00D10124084886
:1028B000016821F0070121430160006800F0070072
:1028C000A04201D00120F8BD0020F8BD0010024058
:1028D000002002407047FEF7B1BF10B596B044210A
:1028E0006846FDF7CCFE142111A8FDF7C8FE4FF491
:1028F0000070FFF733F808B172B6FEE70121080453
:10290000CDE90010022003240A90CDE90B411421E7
:102910000D910721CDE90E1010906846FFF772F96E
:1029200008B172B6FEE70F20CDE911040020139024
:1029300014901590042111A8FFF74CF8002801D03D
:1029400072B6FEE716B010BD0248016841F470018E
:102950000160704788ED00E090F82410090706D563
:1029600001684A68436B22F400421A434A6090F8B7
:102970002410C90706D001684A68836A22F400322D
:102980001A434A6090F82410890706D501684A68FE
:10299000C36A22F480321A434A6090F8241049072F
:1029A00006D501684A68036B22F480221A434A6004
:1029B00090F82410C90606D501688A68836B22F452
:1029C00080521A438A6090F82410890606D501685F
:1029D0008A68C36B22F400521A438A6090F824106C
:1029E000490611D501684A68036C22F480121A4323
:1029F0004A60016CB1F5801F06D101684A68436CDA
:102A000022F4C0021A434A6090F82410090606D541
:102A100001684A68806C22F4002202434A607047D1
:102A20002DE9F84300260446C0F88460FEF700FF55
:102A30008046206800684FF0200500076FF07E4751
:102A400012D54346002229042046009700F06CF975
:102A500050B1216851E8000F20F0800041E80002E9
:102A6000002AF6D1E56721E020680068400722D5FA
:102A7000434600224FF480012046009700F054F9AD
:102A8000C8B1216851E8000F20F4907041E80002BD
:102A9000002AF6D12068083050E8001F21F001011B
:102AA00040E80012002AF5D1C4F8805084F878601C
:102AB0000320BDE8F883E567C4F8805044F8606FF0
:102AC000666026760020F4E710B5806A0021A0F841
:102AD0005A10A0F85210FFF767FB10BD016851E8CB
:102AE000002F22F4907241E80023002BF6D10168F8
:102AF000083151E8002F22F0010241E80023002BA9
:102B0000F5D1016E012908D1026852E8001F21F0B9
:102B1000100142E80013002BF6D12021C0F88010EC
:102B200000210166816670472DE9F0410446016885
:102B300080682269E3691043626900251A431043E3
:102B4000714F0A68714B1A4002430A60206841685D
:102B5000E26821F44051114341602168A069B94203
:102B600001D0226A10438A6822F4306202438A60EC
:102B70006749236867488B420DD1D0F8880010F070
:102B8000030006D0012847D0022843D0032830D1C3
:102B900044E001212EE060498B420BD1D0F888003F
:102BA00010F00C0034D0042836D0082832D00C287D
:102BB0001FD133E059498B420BD1D0F8880010F077
:102BC000300025D0102827D0202823D0302810D13D
:102BD00024E0BB420DD1D0F8880010F4406017D03B
:102BE000B0F5806F18D0B0F5006F13D0B0F5406F1E
:102BF00014D010214A4A00264FF40040BB422FD186
:102C000071B102290FD004290FD0082973D10FE028
:102C10000021EFE70221EDE70421EBE70821E9E7D6
:102C2000FEF77AFF03E0104602E0FEF799FFE8B3F3
:102C3000626802EB420181425DD8B0EB023F5AD894
:102C4000010E03025008181871410023FDF71BFB09
:102C5000344AA0F5407191424DD82168C8604BE0DC
:102C6000E3694FF6EF77834228D1092943D2DFE8A1
:102C700001F005080B420D4242421000FEF74CFFE6
:102C800006E0FEF75BFF03E0104602E0FEF768FF98
:102C900060B14100606801EB5001B1FBF0F0A0F1C0
:102CA0001001B94227D84FF6F07100E024E001404E
:102CB000C0F3420001432068C1601DE009291AD217
:102CC000DFE801F005080B190D1919191000FEF7BE
:102CD00023FF06E0FEF732FF03E0104602E0FEF7B6
:102CE0003FFF48B1616800EB5100B0FBF1F0A0F18B
:102CF0001001B94205D90125A6662846E666BDE859
:102D0000F08180B2A9E7000000800040F369FFEF86
:102D100000380140001002400044004000480040DC
:102D20000024F400FFFC0F002DE9F04799461746F8
:102D30000D4604464FF00008089E33E0701C31D069
:102D4000FEF776FDA0EB0900B04218D8BEB12068AE
:102D50000168490726D5802D24D0402D22D0C16995
:102D6000C94309070DD4082505622046FFF7B6FEC2
:102D7000C4F8845084F878800120BDE8F0870320EF
:102D8000FBE7C069C04300050CD421684FF4006024
:102D900008622046FFF7A2FE2020C4F8840084F8D1
:102DA0007880ECE72068C06935EA000004D0002094
:102DB000B842C3D00020E0E70120F9E72DE9F04355
:102DC0008448CFB00068C069C043800671D40A232C
:102DD00001224DA97F48FFF707FC7F487F4C9DF8F3
:102DE000342100F56C6CA189A0F5506800F6985369
:102DF0004254A0F54A651646002741462846CDF8BC
:102E000000C000F027FA022832D0032830D0002872
:102E100041D0DFF8CC81932208F11009D8F80810CE
:102E2000B2EB112F68D16078401C6070404600F50D
:102E3000AE76C578362D00D3362536213046FDF7DF
:102E40001EFC2A4649463046FDF7C5FB65484FF64D
:102E5000FE714289531EDFED641A9FED640A8B42B6
:102E60001AD200EE902AF8EE600A80EEA11A15E060
:102E700098F802202846521C88F80220012288F87F
:102E8000007088F80320FD2E05D1022288F8032067
:102E9000C77000F039FD8EE0B0EE401A8289531EF3
:102EA0008B4207D200EE902AB8EE602AC2EE210AC9
:102EB00002E088E0F0EE400AC089421E8A4205D254
:102EC00000EE100AB8EE402A82EE210A71EE200AC6
:102ED00030EE800A10EE100A00F08EFDCDE9000100
:102EE00043A2642102A8FDF745FA02A8FDF70FFBF3
:102EF00081B202A800F022F9D8F808004A21B1EB0B
:102F0000102F28D1A078401CA070354800F5CA7653
:102F1000C578142D00D3142514213046FDF7AFFBDE
:102F20002A4649463046FDF756FBA07898B12D4811
:102F30003830406800F060FDCDE9000130A2642126
:102F400034A8FDF717FA34A8FDF7E1FA81B234A8E6
:102F500000F0F4F8A770D8F808001E21B1EB102F8C
:102F600029D1E078401CE0701D4800F5A076C578B6
:102F70001C2D00D31C251C213046FDF780FB2A4662
:102F800049463046FDF727FBE078052813D9154858
:102F90001C38C06800F030FDCDE900011EA264219C
:102FA0001BA8FDF7E7F91BA8FDF7B1FA81B21BA832
:102FB00000F0C4F8E770A089401C80B2A081B0F591
:102FC000806F00D3A7810348FFF7F0F84FB0BDE84A
:102FD000F0830000C01A0020C00E00201400002062
:102FE000581C0020B41D002000007A44000000009E
:102FF000766F6C746167653D252E31660D0A0000A1
:1030000067726F756E6473706565643D252E3166F9
:10301000206D2F730D0A00007961773D252E3166F2
:103020000D0A000038B51E4D2868C0691D4CC0430C
:10303000800614D44FF47A73012269462846FFF7BC
:10304000D3FAE089A5F591629DF800101154401C57
:1030500080B2E081B0F5806F01D30020E081286864
:10306000C169090618D50168090615D52189628943
:1030700091420AD00C486189405C0C490880608903
:10308000401CC0F30900608103E0016821F0800169
:1030900001602968802008620148FFF787F838BD81
:1030A000481B002014000020C00A002028440040D3
:1030B00038B51E4D2868C0691D4CC043800614D425
:1030C0004FF47A73012269462846FFF78DFA208A69
:1030D000A5F511629DF800101154401C80B22082A9
:1030E000B0F5806F01D3002020822868C1690906ED
:1030F00018D50168090615D52189628991420AD03F
:103100000C486189405C0C4908806089401CC0F310
:103110000900608103E0016821F0800101602968F5
:10312000802008620148FFF741F838BDD01B00201D
:1031300014000020C00A002028480040F0B50023F9
:10314000EFF3108572B61A46134C144F12E026891D
:10315000B4F80AC0761CC6F3090666450CD010F810
:1031600002C0B4F808E007F80EC026815B1C521CB0
:103170009BB292B28A42EAD32BB109480068026836
:1031800042F08002026085F310888B4201D1012059
:10319000F0BD0020F0BD000014000020C00A002097
:1031A000D01B0020FEE703B401984100009850EACC
:1031B000C12018BF04204A0D18BF40F0010040F2A2
:1031C000FF72B2EB515F08BF40F00200012808BF58
:1031D000052002B070470907090E002804DB00F142
:1031E000E02080F80014704700F00F0000F1E020AC
:1031F00080F8141D704730380A2801D2012070472A
:10320000002070477047000010B504460420FEF708
:10321000A9FF0148046010BD10000020FEF716FB56
:10322000FFF75BFBFFF784FAFFF7B8FAFFF7D4FA72
:10323000FFF7F0FA0520FEF77FFBA820FFF7E4FF79
:103240004FF4614000F098FB4FF4165000F06EFB15
:10325000FEE700002DE9F05F4FF0000A0A9F0C46E0
:10326000054681F800A0C97802209946164605F166
:10327000100B4FF0010810290DD2DFE801F008080B
:103280002133444A51585F72808C9ADADAF3FD2E6A
:1032900002D0FE2E08D01DE1E07085F803A0AE70CC
:1032A000207B20F0010006E0E07085F803A0AE70FE
:1032B000207B40F001002073284600F025FB09E147
:1032C000EE7084F804A03146284600F021FB207BF4
:1032D000C00705D085F804A085F805A005204CE0BE
:1032E00003204AE02E71700807D0A078401CA0701F
:1032F00084F800A084F80380ECE03146284600F012
:1033000007FB042039E06E713146284600F000FBCF
:10331000E4E7AE713146284600F0FAFA06202CE0C8
:10332000EE713146284600F0F3FA072025E02E72B0
:103330003146284600F0ECFA08201EE0A868314625
:1033400066F31F20A860284600F0E2FA207BC00741
:1033500005D0E87808B10B200FE00C200DE0092023
:103360000BE0A868010A41EA062161F31F20A8606A
:103370003146284600F0CCFA0A20E070AAE0A8689E
:10338000010A41EA064161F31F20A8603146284640
:1033900000F0BEFADDE72079411C217100F80B60D6
:1033A0003146284600F0B4FA2079E9788842D4D032
:1033B00090E0A86800215E4B4FEA102CDA228818B2
:1033C000401C400800EB400853F82880E0450BD92A
:1033D000A0F101029142F2D301EB410053F8201019
:1033E000614504D0D0460AE00146F3D3F4E703EB8D
:1033F00080005FEA000802D098F8041000E0002185
:10340000284600F085FA2878B04201D00E2000E06E
:103410000D20E07085F81861B8F1000F5AD02079BE
:1034200098F80610884255D2091A5844FDF705F954
:1034300050E00E2903D02988B6EB112F01D020705F
:1034400001E084F8008085F819612879C0070AD066
:103450000F20E0700D206073207802283AD084F8A5
:1034600000A037E00EE0206950B3026B22B1A868DB
:10347000010A2046904718BB2078022820D003205C
:1034800020701DE0607BC0F10D00284480F81A61B7
:10349000607B401E10F0FF0060731BD1D4E9040173
:1034A0002A4600F065F948B92069026B002AE6D087
:1034B000A868010A204690470028E0D084F80080E0
:1034C00084F80380B9F1000004D04FF494722946C7
:1034D000FDF781F82078012807D1A879607120894B
:1034E00008B9A4F80AA0401C2081B9F1000F02D04D
:1034F000E97889F8031067B1E078F87020793871BD
:103500006079401C787120893881A0787881207B8F
:10351000387384F802A02078022806D1B9F1000F90
:1035200003D0B5F81811A9F80010207800F002B8FF
:10353000303C000830BCBDE8C09F00002DE9F04FD2
:10354000C8B0836888464793C1684691046945942A
:1035500042694492964682694392C5694295A9465A
:10356000056A4195466A4096B34600264FEA0D0724
:1035700058F826C047F826C0761C102EF8DB102617
:1035800007EB860A5AF8087C4FEA774C8CEAF74C2E
:103590008CEA972C5AF83C7C4FEAF71888EAB7482F
:1035A00088EAD707BC445AF81C8C5AF8407C474438
:1035B000BC444DF826C0761C6F46402EE0DB00264A
:1035C0004FEAB21787EAF22787EA726C02EA090724
:1035D00025EA020887EA0807BC44204F57F82680EE
:1035E00008EB0B07BC445DF82670AB460CEB070AF2
:1035F0004FEAB30787EA733787EAB35C81EA0407C7
:103600004D4601EA040891461F400EEB0A02A64609
:1036100087EA08070C46BC441946761C0AEB0C03E3
:10362000402ECDDB479E33448360469B1944C160E6
:103630004599214401614499714441614399114480
:10364000816142994944C16141992944016240998B
:103650005944416248B000F003B80000303B000814
:1036600030BCBDE8C08F2DE9F0410446008892B01F
:10367000C0F3C500C0F1770000F03F0680200D4682
:103680008DF8000004F108074721E8460DF101001C
:10369000761CFCF7D2FF08EB06002178C171218867
:1036A00006F10802090A81712168090C417121683B
:1036B000090E01712179C170A188090A81706168C0
:1036C000090C41706068010E08F806106946204632
:1036D00000F00FF8F8782870B87868707878A870DB
:1036E0003878E870F8792871B879687112B0BDE857
:1036F000F0812DE9F041044600681546884600EB4C
:10370000C50190B02160814202D26168491C6160AC
:10371000C0F3C50727E0C7F14006B54200D22E46E8
:10372000E019324641462830FCF710FF3744AD1B04
:10373000B044402F17D104F1280300206E4603EB5C
:10374000800106EB8002CF7817708F7857704F7822
:1037500097700978401CD1701028F0DB3146204664
:10376000FFF7ECFE0027002DD5D110B0BDE8F081A9
:103770002DE9F043A1B014460E4607007DD000208D
:103780000090019057480290574803905748049082
:103790005748059057480690574807905748089053
:1037A0005748099004F1020804F58D7504F22119B7
:1037B000202207F110016846FFF79BFF0A224146CD
:1037C0006846FFF796FFE27804F110016846FFF7BC
:1037D00090FF022204F58C716846FFF78AFF0722EA
:1037E00029466846FFF785FF1EA96846FFF73BFF9D
:1037F000062249461EA8FCF75EFEE8BB2A78002098
:10380000CDE91A00D5F801001A90B5F80500ADF819
:103810006C008EB30020318814E000BF00EBC003C1
:10382000334494F807C093F80380C44508D194F852
:1038300008C093F80480C44502D19B78934203D01A
:10384000401C80B28142E9D881421FD1102930D278
:10385000DDE91A13DFF8ACC011EB0C0843F10001ED
:10386000D7E9023CB8EB030371EB0C0121D300EB69
:10387000C001E379314401E01BE030E0CB70237AF2
:103880000B718A703188491C318016E00021CDE926
:103890001C1100EBC001314451F8052F1C9289889E
:1038A0001446DDE91A23ADF874101D99A21A994146
:1038B00003D3002021B0BDE8F08300EBC00030440A
:1038C00055F8011F40F8051FA9888180D7E9023209
:1038D000DDE91A011B1A8A4101D2C7E90201012060
:1038E000E8E7000067E6096A85AE67BB72F36E3CE5
:1038F0003AF54FA57F520E518C68059BABD9831FBB
:1039000019CDE05B808D5B004FF6FF710180704741
:103910000288514081EA0111C9B2120A82EA0122E9
:1039200082EAC10282EA11110180704710B5114C80
:103930000F49C4E900100020A060E0600C21206164
:10394000C4E90510E061206260622046FEF792FD46
:103950002068016841F0200101602720FDF7BEFFCB
:1039600000220321BDE810402720FDF7C5BF00005D
:1039700000480040D01B002010B5104C0E49C4E98F
:1039800000100020A060E0600C212061C4E9051057
:10399000E0612046FEF76EFD2068016841F02001DD
:1039A00001602520FDF79AFF0322BDE81040114673
:1039B0002520FDF7A1BF000000380140C01A0020FB
:1039C00010B500290AD00878002807D005487844A7
:1039D000FDF7E6F9002801D0002010BD0248784428
:1039E00010BD00005A0D0000520D00000808A0F59F
:1039F00000114FEA3101704743004FEAD30C4FEA00
:103A00003C0C43401FBF40070CF1605113F0FE4FC8
:103A100070471CF0006F03D100200CF0004170478C
:103A20000CF0004343EA507010B540EACC0000F0BF
:103A30000EF800BF000000924FEA0001FFF7D6BF6A
:103A40004FF000414FF00000A1F5002170470EF14A
:103A5000020E2EF0030E5EF8044B244204D44FEA0B
:103A60004102B2F17F4F11D84FEA4003B3F17F4FCB
:103A70000CD80ED14FEAD07CB2F17F4F0CEB4C0C3E
:103A80000CF1020C08BF4CEBD17C04E04FF0080CA9
:103A900001E04FEAD17C0CEB4C0324FA03F404F070
:103AA0000704B4F1040C06D20EEB840CBDE8104000
:103AB0004CF0010C6047DFE80CF0070802024FF001
:103AC0000040A0F5800010BD0846420018BFD2F1AA
:103AD000807288BF00F0004010BD4FF04070E1EEF2
:103AE000100A7047FCF7CFBE000000000000000085
:103AF0000102030406070809A0860100400D030027
:103B0000801A060000350C0040420F0080841E0021
:103B100000093D0000127A000024F40000366E0116
:103B20000048E801006CDC02000000000102030410
:103B3000982F8A4291443771CFFBC0B5A5DBB5E918
:103B40005BC25639F111F159A4823F92D55E1CAB8C
:103B500098AA07D8015B8312BE853124C37D0C551A
:103B6000745DBE72FEB1DE80A706DC9B74F19BC162
:103B7000C1699BE48647BEEFC69DC10FCCA10C2452
:103B80006F2CE92DAA84744ADCA9B05CDA88F97636
:103B900052513E986DC631A8C82703B0C77F59BFA0
:103BA000F30BE0C64791A7D55163CA0667292914CC
:103BB000850AB72738211B2EFC6D2C4D130D385369
:103BC00054730A65BB0A6A762EC9C281852C72922B
:103BD000A1E8BFA24B661AA8708B4BC2A3516CC759
:103BE00019E892D1240699D685350EF470A06A1092
:103BF00016C1A419086C371E4C774827B5BCB034E1
:103C0000B30C1C394AAAD84E4FCA9C5BF36F2E687E
:103C1000EE828F746F63A5781478C8840802C78C0D
:103C2000FAFFBE90EB6C50A4F7A3F9BEF27871C610
:103C3000000000003209090000000000010000003F
:103C40007C1F2B000000000002000000890C0C000B
:103C50000000000004000000ED0E0E030C0D00003B
:103C600005000000D91C1C01000000000600000037
:103C70006803030000000000070000007720200018
:103C8000000000000800000075242400000000006F
:103C90000B0000005906060104000000140000009B
:103CA000D614140302030000150000009F02020353
:103CB0000001000016000000DC19190000000000DF
:103CC00017000000A81717030405000018000000E3
:103CD000181E340000000000190000001765650080
:103CE000000000001A000000AA16180000000000E2
:103CF0001B000000901A1D00000000001C000000C6
:103D000043101000000000001D000000730E1000A2
:103D1000000000001E000000271C1C000000000026
:103D20001F000000F620300000000000200000000E
:103D3000B91C1C000000000021000000681C1C00D1
:103D40000000000022000000ED1616000000000038
:103D500023000000F41616000000000024000000FC
:103D6000DE1525000000000025000000D406070332
:103D700004050000260000000906070304050000F2
:103D800027000000FE252603202100002800000057
:103D9000E604050302030000290000001C040403DC
:103DA000020300002A0000001C02020000000000C4
:103DB0002B00000084020303000100002C0000001F
:103DC000DD040503020300002D000000E8020303E8
:103DD000000100002E0000000B02020000000000A5
:103DE0002F000000990304030001000030000000D0
:103DF000290D15010C00000031000000270C1400F3
:103E000000000000320000004E25250312130000C0
:103E100033000000C4040503020300003600000064
:103E20000F1B1B03181900003700000003191900AD
:103E3000000000003D000000A7484800000000000E
:103E40003E000000B71A1A00000000003F0000000A
:103E500077B5B5000000000040000000BFE1E100C0
:103E60000000000041000000762A2A000000000047
:103E70004200000094060603020300004300000015
:103E8000150404000000000045000000F30B1201BF
:103E90000A000000460000007C12260310110000FA
:103EA0004900000026252603202100004A000000CA
:103EB00014141400000000004B0000009E23230394
:103EC0001E1F00004C000000982121031E1F00004F
:103ED0004D0000008F030A03080900005000000095
:103EE0000E04040302030000510000006A161600CD
:103EF0000000000052000000312733032425000099
:103F000053000000162525000000000054000000AA
:103F10008F35350332330000550000008C333300F9
:103F20000000000056000000053535033233000064
:103F300057000000963333000000000059000000D5
:103F4000E71C1C00000000005A000000B7383800D1
:103F5000000000005B0000003F2A2A000000000073
:103F60005C00000036212100000000005D00000020
:103F70002F5151000000000064000000AF1A220021
:103F800000000000650000006620750000000000D1
:103F9000660000009E207500000000006700000021
:103FA000D0143900000000006800000038207400C0
:103FB00000000000690000005D3E3F0000000000BE
:103FC0006A0000008A2C2C00000000006B0000003A
:103FD0006C404100000000006C00000020545400C0
:103FE000000000006D000000B90909000000000099
:103FF0006E00000054FEFE03010200006F0000008E
:10400000221010000000000070000000AE0C0C0038
:1040100000000000710000007C2427000000000068
:1040200072000000ED2C2C00000000007300000066
:104030000440400000000000740000004C1618000E
:104040000000000075000000800606030405000063
:1040500076000000380E0E0000000000770000001F
:10406000740C0C030A0B00007800000086616100EC
:104070000000000079000000ED02020300010000D2
:104080007A000000CB020203000100007B00000068
:10409000FA717103000100007C0000005723390011
:1040A000000000007D000000CB06060000000000BC
:1040B0007E000000DC4F51034F5000007F000000E5
:1040C000192323000000000080000000E2232300E9
:1040D00000000000810000002E1618000000000003
:1040E000820000001D0D0D00000000008300000094
:1040F000DFFFFF000000000084000000550E2700D5
:104100000000000085000000061212000000000000
:1041100086000000E52B2B00000000008700000057
:10412000CB080800000000008800000001161600FF
:104130000000000089000000C30E10000000000015
:104140008A0000006D247800000000008B00000051
:10415000A82B2B03292A00008C000000B529290078
:10416000000000008D0000002F2020000000000053
:104170008E00000048F3F300000000008F000000F4
:10418000830E100000000000900000007F5D5D00C5
:10419000000000009200000067646400000000005E
:1041A000930000009A2436000000000094000000F4
:1041B000B23C4E000000000095000000C81E3C000C
:1041C00000000000A2000000BD080900000000007F
:1041D000C0000000242C360000000000E1000000B8
:1041E000D041450000000000E6000000A32A2A009C
:1041F00000000000E700000069282800000000001F
:10420000E8000000973F410000000000E9000000C6
:1042100023B6B60000000000EA000000962828003F
:1042200000000000EB000000B32A2A00000000009C
:10423000F10000005A20200000000000F200000001
:1042400068343C0000000000F300000055353D01DB
:1042500034000000F40000005F06060000000000CB
:10426000F50000008202020000000000F6000000DD
:10427000B826260000000000F700000051131300CC
:1042800000000000F800000008FEFE030304000028
:10429000F9000000CC24240000000000FA00000017
:1042A000311E1E0000000000FB000000AA121200D8
:1042B00000000000FC0000002C12120000000000B2
:1042C000FD0000005333360000000000FE00000037
:1042D0002E0909000000000000010000472A2A03FF
:1042E0000809000001010000830909000000000026
:1042F00002010000BB20E8030001000003010000F0
:104300005CEBEB00000000000401000092050D00D2
:104310000000000005010000B31B3D00000000008C
:10432000060100000C12160000000000070100004A
:1043300085FFFF000000000008010000311C1C0088
:1043400000000000090100001A1014000000000025
:104350000A010000C1FFFF03020300000B0100007F
:1043600023FFFF03020300000C0100000E040403FE
:10437000020300000D0100006DD5D5000000000013
:104380000E0100003B131300000000000F010000AD
:104390001634340000000000130100007E1F1F00CF
:1043A0000000000014010000123131000000000084
:1043B0001801000046212100000000001901000042
:1043C000300D0D00000000001A0100007B232303C4
:1043D000202100001B0100004A9090000000000016
:1043E0001C010000632020031E1F00001D010000AF
:1043F00089282803262700001E010000D235350336
:10440000323300001F0100000117170314150000CC
:1044100020010000141717031415000022010000EA
:10442000FB2E2E0000000000230100000A39390095
:10443000000000002B01000013606200000000007B
:104440002C010000D9161600000000002D0100000C
:10445000F33A3A0000000000360100001C11110080
:1044600000000000370100005F74740000000000CD
:1044700040010000F3141403020300004101000096
:10448000580202030001000042010000F39595006C
:1044900000000000430100004E9393030001000060
:1044A0004401000084929200000000004A010000D4
:1044B000179EA700000000004B0100005BE6E9002A
:1044C000000000004C010000ECEFEF0000000000D5
:1044D0004D010000E76D6D00000000004E0100007E
:1044E000480A0A00000000004F010000E11818000F
:1044F0000000000050010000F554540000000000CE
:1045000053010000C7050500000000005401000031
:1045100063464600000000005E010000E814FC0055
:1045200000000000680100000B19190000000000E5
:10453000720100004B576D00000000007501000083
:10454000752A2A000000000077010000FB8C8C0017
:10455000000000007C010000E814140000000000CE
:1045600081010000938585030203000082010000A1
:104570008410100304050000830100000448480370
:104580000405000084010000082525032021000007
:10459000860100009CEEEE00000000008B01000090
:1045A00000D4D400000000008D010000B66C6C0047
:1045B00000000000900100006EFEFE0304050000F4
:1045C00091010000B7060603040500009A010000EF
:1045D000A0353500000000009B0100006A030300C5
:1045E000000000009C0100002106060304050000F5
:1045F0009D0100004D07070304050000282300006B
:1046000071898900000000002D230000752222001E
:104610000000000064320000722C2C030001000036
:1046200065320000FE3B3B031E1F000066320000A7
:104630008C3535030405000067320000F92E2E0387
:1046400000010000683200004D3636031C1D0000DA
:1046500069320000312B2B0300010000733200008F
:104660005EF9F9030001000078320000140505002E
:104670000000000002400000000000A00000000058
:1046800005400000000000C8000000000C400000D1
:104690000000409C00000000194000000020BCBE4B
:1046A0000000000034400000BFC91B8E0000000461
:1046B000B5400000504BCFD06607E2CF01000000AC
:1046C0006C4100003E8251AADFEEA73401000000D9
:1046D000D9420000DCB5A0E23A301F97FFFFFFFF90
:1046E000B4450000FD25A0C8E9A3C14FFFFFFFFFAF
:1046F000FF3F00000000008000000000FF3F0000BE
:104700000000008000000000444700080000002076
:1047100028000000C80100086C470008280000209D
:1047200038240000E40100081C00000043000000E1
:10473000F8FFFFFF0C0000000E0000000F0000005B
:104740002E0000000100000010000000000000002A
:1047500000093D0000000000000000000000000013
:0C4760000000000000000000000000004D
:040000050800018D61
:00000001FF
